{
  "contractName": "BookSupplyChain",
  "abi": [
    {
      "constant": false,
      "inputs": [],
      "name": "renouncePublisher",
      "outputs": [],
      "payable": false,
      "stateMutability": "nonpayable",
      "type": "function"
    },
    {
      "constant": true,
      "inputs": [
        {
          "name": "account",
          "type": "address"
        }
      ],
      "name": "isWriter",
      "outputs": [
        {
          "name": "",
          "type": "bool"
        }
      ],
      "payable": false,
      "stateMutability": "view",
      "type": "function"
    },
    {
      "constant": false,
      "inputs": [],
      "name": "renounceLibrary",
      "outputs": [],
      "payable": false,
      "stateMutability": "nonpayable",
      "type": "function"
    },
    {
      "constant": true,
      "inputs": [
        {
          "name": "account",
          "type": "address"
        }
      ],
      "name": "isPublisher",
      "outputs": [
        {
          "name": "",
          "type": "bool"
        }
      ],
      "payable": false,
      "stateMutability": "view",
      "type": "function"
    },
    {
      "constant": false,
      "inputs": [],
      "name": "renounceOwnership",
      "outputs": [],
      "payable": false,
      "stateMutability": "nonpayable",
      "type": "function"
    },
    {
      "constant": false,
      "inputs": [
        {
          "name": "account",
          "type": "address"
        }
      ],
      "name": "addReviewer",
      "outputs": [],
      "payable": false,
      "stateMutability": "nonpayable",
      "type": "function"
    },
    {
      "constant": false,
      "inputs": [
        {
          "name": "account",
          "type": "address"
        }
      ],
      "name": "addPublisher",
      "outputs": [],
      "payable": false,
      "stateMutability": "nonpayable",
      "type": "function"
    },
    {
      "constant": true,
      "inputs": [],
      "name": "owner",
      "outputs": [
        {
          "name": "",
          "type": "address"
        }
      ],
      "payable": false,
      "stateMutability": "view",
      "type": "function"
    },
    {
      "constant": true,
      "inputs": [],
      "name": "isOwner",
      "outputs": [
        {
          "name": "",
          "type": "bool"
        }
      ],
      "payable": false,
      "stateMutability": "view",
      "type": "function"
    },
    {
      "constant": true,
      "inputs": [
        {
          "name": "account",
          "type": "address"
        }
      ],
      "name": "isLibrary",
      "outputs": [
        {
          "name": "",
          "type": "bool"
        }
      ],
      "payable": false,
      "stateMutability": "view",
      "type": "function"
    },
    {
      "constant": false,
      "inputs": [
        {
          "name": "account",
          "type": "address"
        }
      ],
      "name": "addLibrary",
      "outputs": [],
      "payable": false,
      "stateMutability": "nonpayable",
      "type": "function"
    },
    {
      "constant": false,
      "inputs": [
        {
          "name": "account",
          "type": "address"
        }
      ],
      "name": "addWriter",
      "outputs": [],
      "payable": false,
      "stateMutability": "nonpayable",
      "type": "function"
    },
    {
      "constant": false,
      "inputs": [],
      "name": "renounceWriter",
      "outputs": [],
      "payable": false,
      "stateMutability": "nonpayable",
      "type": "function"
    },
    {
      "constant": false,
      "inputs": [],
      "name": "renounceReviewer",
      "outputs": [],
      "payable": false,
      "stateMutability": "nonpayable",
      "type": "function"
    },
    {
      "constant": false,
      "inputs": [
        {
          "name": "newOwner",
          "type": "address"
        }
      ],
      "name": "transferOwnership",
      "outputs": [],
      "payable": false,
      "stateMutability": "nonpayable",
      "type": "function"
    },
    {
      "constant": true,
      "inputs": [
        {
          "name": "account",
          "type": "address"
        }
      ],
      "name": "isReviewer",
      "outputs": [
        {
          "name": "",
          "type": "bool"
        }
      ],
      "payable": false,
      "stateMutability": "view",
      "type": "function"
    },
    {
      "inputs": [],
      "payable": true,
      "stateMutability": "payable",
      "type": "constructor"
    },
    {
      "anonymous": false,
      "inputs": [
        {
          "indexed": false,
          "name": "upc",
          "type": "uint256"
        }
      ],
      "name": "Abstract",
      "type": "event"
    },
    {
      "anonymous": false,
      "inputs": [
        {
          "indexed": false,
          "name": "upc",
          "type": "uint256"
        },
        {
          "indexed": false,
          "name": "publisher",
          "type": "address"
        }
      ],
      "name": "Submitted",
      "type": "event"
    },
    {
      "anonymous": false,
      "inputs": [
        {
          "indexed": false,
          "name": "upc",
          "type": "uint256"
        },
        {
          "indexed": false,
          "name": "reviewer",
          "type": "address"
        }
      ],
      "name": "Approved",
      "type": "event"
    },
    {
      "anonymous": false,
      "inputs": [
        {
          "indexed": false,
          "name": "upc",
          "type": "uint256"
        }
      ],
      "name": "Written",
      "type": "event"
    },
    {
      "anonymous": false,
      "inputs": [
        {
          "indexed": false,
          "name": "upc",
          "type": "uint256"
        }
      ],
      "name": "Reviewed",
      "type": "event"
    },
    {
      "anonymous": false,
      "inputs": [
        {
          "indexed": false,
          "name": "upc",
          "type": "uint256"
        },
        {
          "indexed": false,
          "name": "assetsUrl",
          "type": "string"
        }
      ],
      "name": "Art",
      "type": "event"
    },
    {
      "anonymous": false,
      "inputs": [
        {
          "indexed": false,
          "name": "upc",
          "type": "uint256"
        },
        {
          "indexed": false,
          "name": "buyer",
          "type": "address"
        }
      ],
      "name": "Ordered",
      "type": "event"
    },
    {
      "anonymous": false,
      "inputs": [
        {
          "indexed": false,
          "name": "upc",
          "type": "uint256"
        }
      ],
      "name": "Produced",
      "type": "event"
    },
    {
      "anonymous": false,
      "inputs": [
        {
          "indexed": false,
          "name": "upc",
          "type": "uint256"
        }
      ],
      "name": "Shipped",
      "type": "event"
    },
    {
      "anonymous": false,
      "inputs": [
        {
          "indexed": false,
          "name": "upc",
          "type": "uint256"
        }
      ],
      "name": "Received",
      "type": "event"
    },
    {
      "anonymous": false,
      "inputs": [
        {
          "indexed": true,
          "name": "account",
          "type": "address"
        }
      ],
      "name": "LibraryAdded",
      "type": "event"
    },
    {
      "anonymous": false,
      "inputs": [
        {
          "indexed": true,
          "name": "account",
          "type": "address"
        }
      ],
      "name": "LibraryRemoved",
      "type": "event"
    },
    {
      "anonymous": false,
      "inputs": [
        {
          "indexed": true,
          "name": "account",
          "type": "address"
        }
      ],
      "name": "ReviewerAdded",
      "type": "event"
    },
    {
      "anonymous": false,
      "inputs": [
        {
          "indexed": true,
          "name": "account",
          "type": "address"
        }
      ],
      "name": "ReviewerRemoved",
      "type": "event"
    },
    {
      "anonymous": false,
      "inputs": [
        {
          "indexed": true,
          "name": "account",
          "type": "address"
        }
      ],
      "name": "PublisherAdded",
      "type": "event"
    },
    {
      "anonymous": false,
      "inputs": [
        {
          "indexed": true,
          "name": "account",
          "type": "address"
        }
      ],
      "name": "PublisherRemoved",
      "type": "event"
    },
    {
      "anonymous": false,
      "inputs": [
        {
          "indexed": true,
          "name": "account",
          "type": "address"
        }
      ],
      "name": "WriterAdded",
      "type": "event"
    },
    {
      "anonymous": false,
      "inputs": [
        {
          "indexed": true,
          "name": "account",
          "type": "address"
        }
      ],
      "name": "WriterRemoved",
      "type": "event"
    },
    {
      "anonymous": false,
      "inputs": [
        {
          "indexed": true,
          "name": "oldOwner",
          "type": "address"
        },
        {
          "indexed": true,
          "name": "newOwner",
          "type": "address"
        }
      ],
      "name": "TransferOwnership",
      "type": "event"
    },
    {
      "constant": false,
      "inputs": [],
      "name": "kill",
      "outputs": [],
      "payable": false,
      "stateMutability": "nonpayable",
      "type": "function"
    },
    {
      "constant": false,
      "inputs": [
        {
          "name": "_upc",
          "type": "uint256"
        },
        {
          "name": "_writerName",
          "type": "string"
        },
        {
          "name": "_draftTitle",
          "type": "string"
        },
        {
          "name": "_bAbstract",
          "type": "string"
        },
        {
          "name": "_draft",
          "type": "string"
        },
        {
          "name": "_price",
          "type": "uint256"
        }
      ],
      "name": "writerAbstract",
      "outputs": [],
      "payable": false,
      "stateMutability": "nonpayable",
      "type": "function"
    },
    {
      "constant": false,
      "inputs": [
        {
          "name": "_upc",
          "type": "uint256"
        },
        {
          "name": "publisher",
          "type": "address"
        }
      ],
      "name": "submitAbstract",
      "outputs": [],
      "payable": false,
      "stateMutability": "nonpayable",
      "type": "function"
    },
    {
      "constant": false,
      "inputs": [
        {
          "name": "_upc",
          "type": "uint256"
        },
        {
          "name": "reviewer",
          "type": "address"
        }
      ],
      "name": "approves",
      "outputs": [],
      "payable": false,
      "stateMutability": "nonpayable",
      "type": "function"
    },
    {
      "constant": false,
      "inputs": [
        {
          "name": "_upc",
          "type": "uint256"
        },
        {
          "name": "text",
          "type": "string"
        }
      ],
      "name": "writeBook",
      "outputs": [],
      "payable": false,
      "stateMutability": "nonpayable",
      "type": "function"
    },
    {
      "constant": false,
      "inputs": [
        {
          "name": "_upc",
          "type": "uint256"
        },
        {
          "name": "finalText",
          "type": "string"
        }
      ],
      "name": "review",
      "outputs": [],
      "payable": false,
      "stateMutability": "nonpayable",
      "type": "function"
    },
    {
      "constant": false,
      "inputs": [
        {
          "name": "_upc",
          "type": "uint256"
        },
        {
          "name": "_assetsUrl",
          "type": "string"
        }
      ],
      "name": "artBook",
      "outputs": [],
      "payable": false,
      "stateMutability": "nonpayable",
      "type": "function"
    },
    {
      "constant": false,
      "inputs": [
        {
          "name": "_upc",
          "type": "uint256"
        }
      ],
      "name": "orderBook",
      "outputs": [],
      "payable": true,
      "stateMutability": "payable",
      "type": "function"
    },
    {
      "constant": false,
      "inputs": [
        {
          "name": "_upc",
          "type": "uint256"
        }
      ],
      "name": "produceBook",
      "outputs": [],
      "payable": false,
      "stateMutability": "nonpayable",
      "type": "function"
    },
    {
      "constant": false,
      "inputs": [
        {
          "name": "_upc",
          "type": "uint256"
        }
      ],
      "name": "ship",
      "outputs": [],
      "payable": false,
      "stateMutability": "nonpayable",
      "type": "function"
    },
    {
      "constant": false,
      "inputs": [
        {
          "name": "_upc",
          "type": "uint256"
        }
      ],
      "name": "receive",
      "outputs": [],
      "payable": false,
      "stateMutability": "nonpayable",
      "type": "function"
    },
    {
      "constant": true,
      "inputs": [
        {
          "name": "_upc",
          "type": "uint256"
        }
      ],
      "name": "fetchBook",
      "outputs": [
        {
          "name": "sku",
          "type": "uint256"
        },
        {
          "name": "upc",
          "type": "uint256"
        },
        {
          "name": "writerName",
          "type": "string"
        },
        {
          "name": "title",
          "type": "string"
        },
        {
          "name": "bAbstract",
          "type": "string"
        },
        {
          "name": "text",
          "type": "string"
        },
        {
          "name": "price",
          "type": "uint256"
        },
        {
          "name": "state",
          "type": "string"
        }
      ],
      "payable": false,
      "stateMutability": "view",
      "type": "function"
    }
  ],
  "bytecode": "0x6080604052336000806101000a81548173ffffffffffffffffffffffffffffffffffffffff021916908373ffffffffffffffffffffffffffffffffffffffff1602179055506000809054906101000a900473ffffffffffffffffffffffffffffffffffffffff1673ffffffffffffffffffffffffffffffffffffffff16600073ffffffffffffffffffffffffffffffffffffffff167f5c486528ec3e3f0ea91181cff8116f02bfa350e03b8b6f12e00765adbb5af85c60405160405180910390a3620000da3362000136640100000000026401000000009004565b620000f433620001a0640100000000026401000000009004565b6200010e336200020a640100000000026401000000009004565b620001283362000274640100000000026401000000009004565b600160058190555062000430565b6200015a816001620002de6401000000000262003c92179091906401000000009004565b8073ffffffffffffffffffffffffffffffffffffffff167f6ff3aa2ea7b53070f6d9d07a445d338d89e8edef44250ffa8be19f53910d4a2e60405160405180910390a250565b620001c4816002620002de6401000000000262003c92179091906401000000009004565b8073ffffffffffffffffffffffffffffffffffffffff167f466d40d3c5afb07f32aa87fa68d587f144c6fee2dfb883b3363937d5427e044260405160405180910390a250565b6200022e816003620002de6401000000000262003c92179091906401000000009004565b8073ffffffffffffffffffffffffffffffffffffffff167fa78fc22d4599bb0c6086d2af06bc1158a45e81f81994d0734c428ab181c1463f60405160405180910390a250565b62000298816004620002de6401000000000262003c92179091906401000000009004565b8073ffffffffffffffffffffffffffffffffffffffff167f2a6869cd9cbe00cc8218e41a39f0860576b3964458f90758c988efa067d16bc260405160405180910390a250565b600073ffffffffffffffffffffffffffffffffffffffff168173ffffffffffffffffffffffffffffffffffffffff1614156200031957600080fd5b6200033482826200039d640100000000026401000000009004565b156200033f57600080fd5b60018260000160008373ffffffffffffffffffffffffffffffffffffffff1673ffffffffffffffffffffffffffffffffffffffff16815260200190815260200160002060006101000a81548160ff0219169083151502179055505050565b60008073ffffffffffffffffffffffffffffffffffffffff168273ffffffffffffffffffffffffffffffffffffffff161415620003d957600080fd5b8260000160008373ffffffffffffffffffffffffffffffffffffffff1673ffffffffffffffffffffffffffffffffffffffff16815260200190815260200160002060009054906101000a900460ff16905092915050565b613ede80620004406000396000f3fe6080604052600436106101d4576000357c0100000000000000000000000000000000000000000000000000000000900480638f1638b611610109578063cba2534f116100a7578063df4eb59c11610081578063df4eb59c14610e5f578063e20914f114610e76578063f2fde38b14610e8d578063fdc6258a14610ede576101d4565b8063cba2534f14610d82578063d889086114610dbd578063da2824a814610e0e576101d4565b8063a1d49acf116100e3578063a1d49acf14610937578063a20b6e3414610bb0578063abba79ff14610bde578063c354b91a14610cb0576101d4565b80638f1638b6146105fe5780638f32d59b1461089f57806392c77ea1146108ce576101d4565b80635f627e7b1161017657806373a82b5f1161015057806373a82b5f146104aa578063763f323d146104fb5780638b9ed5a81461054c5780638da5cb5b146105a7576101d4565b80635f627e7b14610366578063715018a6146103c1578063728c6185146103d8576101d4565b806333c099cc116101b257806333c099cc146102945780633836a7f6146102ab57806341859ac8146102e657806341c0e1b51461034f576101d4565b806315851e58146101d9578063244f643b146101f05780632b29ba231461022b575b600080fd5b3480156101e557600080fd5b506101ee610f47565b005b3480156101fc57600080fd5b506102296004803603602081101561021357600080fd5b8101908080359060200190929190505050610f52565b005b34801561023757600080fd5b5061027a6004803603602081101561024e57600080fd5b81019080803573ffffffffffffffffffffffffffffffffffffffff1690602001909291905050506111b3565b604051808215151515815260200191505060405180910390f35b3480156102a057600080fd5b506102a96111d0565b005b3480156102b757600080fd5b506102e4600480360360208110156102ce57600080fd5b81019080803590602001909291905050506111db565b005b3480156102f257600080fd5b506103356004803603602081101561030957600080fd5b81019080803573ffffffffffffffffffffffffffffffffffffffff1690602001909291905050506113b1565b604051808215151515815260200191505060405180910390f35b34801561035b57600080fd5b506103646113ce565b005b34801561037257600080fd5b506103bf6004803603604081101561038957600080fd5b8101908080359060200190929190803573ffffffffffffffffffffffffffffffffffffffff16906020019092919050505061142b565b005b3480156103cd57600080fd5b506103d6611749565b005b3480156103e457600080fd5b506104a8600480360360408110156103fb57600080fd5b81019080803590602001909291908035906020019064010000000081111561042257600080fd5b82018360208201111561043457600080fd5b8035906020019184600183028401116401000000008311171561045657600080fd5b91908080601f016020809104026020016040519081016040528093929190818152602001838380828437600081840152601f19601f820116905080830192505050505050509192919290505050611847565b005b3480156104b657600080fd5b506104f9600480360360208110156104cd57600080fd5b81019080803573ffffffffffffffffffffffffffffffffffffffff169060200190929190505050611b3d565b005b34801561050757600080fd5b5061054a6004803603602081101561051e57600080fd5b81019080803573ffffffffffffffffffffffffffffffffffffffff169060200190929190505050611b5b565b005b34801561055857600080fd5b506105a56004803603604081101561056f57600080fd5b8101908080359060200190929190803573ffffffffffffffffffffffffffffffffffffffff169060200190929190505050611b79565b005b3480156105b357600080fd5b506105bc611e64565b604051808273ffffffffffffffffffffffffffffffffffffffff1673ffffffffffffffffffffffffffffffffffffffff16815260200191505060405180910390f35b34801561060a57600080fd5b5061089d600480360360c081101561062157600080fd5b81019080803590602001909291908035906020019064010000000081111561064857600080fd5b82018360208201111561065a57600080fd5b8035906020019184600183028401116401000000008311171561067c57600080fd5b91908080601f016020809104026020016040519081016040528093929190818152602001838380828437600081840152601f19601f820116905080830192505050505050509192919290803590602001906401000000008111156106df57600080fd5b8201836020820111156106f157600080fd5b8035906020019184600183028401116401000000008311171561071357600080fd5b91908080601f016020809104026020016040519081016040528093929190818152602001838380828437600081840152601f19601f8201169050808301925050505050505091929192908035906020019064010000000081111561077657600080fd5b82018360208201111561078857600080fd5b803590602001918460018302840111640100000000831117156107aa57600080fd5b91908080601f016020809104026020016040519081016040528093929190818152602001838380828437600081840152601f19601f8201169050808301925050505050505091929192908035906020019064010000000081111561080d57600080fd5b82018360208201111561081f57600080fd5b8035906020019184600183028401116401000000008311171561084157600080fd5b91908080601f016020809104026020016040519081016040528093929190818152602001838380828437600081840152601f19601f82011690508083019250505050505050919291929080359060200190929190505050611e8d565b005b3480156108ab57600080fd5b506108b46123db565b604051808215151515815260200191505060405180910390f35b3480156108da57600080fd5b5061091d600480360360208110156108f157600080fd5b81019080803573ffffffffffffffffffffffffffffffffffffffff169060200190929190505050612432565b604051808215151515815260200191505060405180910390f35b34801561094357600080fd5b506109706004803603602081101561095a57600080fd5b810190808035906020019092919050505061244f565b60405180898152602001888152602001806020018060200180602001806020018781526020018060200186810386528c818151815260200191508051906020019080838360005b838110156109d25780820151818401526020810190506109b7565b50505050905090810190601f1680156109ff5780820380516001836020036101000a031916815260200191505b5086810385528b818151815260200191508051906020019080838360005b83811015610a38578082015181840152602081019050610a1d565b50505050905090810190601f168015610a655780820380516001836020036101000a031916815260200191505b5086810384528a818151815260200191508051906020019080838360005b83811015610a9e578082015181840152602081019050610a83565b50505050905090810190601f168015610acb5780820380516001836020036101000a031916815260200191505b50868103835289818151815260200191508051906020019080838360005b83811015610b04578082015181840152602081019050610ae9565b50505050905090810190601f168015610b315780820380516001836020036101000a031916815260200191505b50868103825287818151815260200191508051906020019080838360005b83811015610b6a578082015181840152602081019050610b4f565b50505050905090810190601f168015610b975780820380516001836020036101000a031916815260200191505b509d505050505050505050505050505060405180910390f35b610bdc60048036036020811015610bc657600080fd5b810190808035906020019092919050505061272c565b005b348015610bea57600080fd5b50610cae60048036036040811015610c0157600080fd5b810190808035906020019092919080359060200190640100000000811115610c2857600080fd5b820183602082011115610c3a57600080fd5b80359060200191846001830284011164010000000083111715610c5c57600080fd5b91908080601f016020809104026020016040519081016040528093929190818152602001838380828437600081840152601f19601f820116905080830192505050505050509192919290505050612ba4565b005b348015610cbc57600080fd5b50610d8060048036036040811015610cd357600080fd5b810190808035906020019092919080359060200190640100000000811115610cfa57600080fd5b820183602082011115610d0c57600080fd5b80359060200191846001830284011164010000000083111715610d2e57600080fd5b91908080601f016020809104026020016040519081016040528093929190818152602001838380828437600081840152601f19601f820116905080830192505050505050509192919290505050612e31565b005b348015610d8e57600080fd5b50610dbb60048036036020811015610da557600080fd5b81019080803590602001909291905050506130d8565b005b348015610dc957600080fd5b50610e0c60048036036020811015610de057600080fd5b81019080803573ffffffffffffffffffffffffffffffffffffffff1690602001909291905050506132b9565b005b348015610e1a57600080fd5b50610e5d60048036036020811015610e3157600080fd5b81019080803573ffffffffffffffffffffffffffffffffffffffff1690602001909291905050506132d7565b005b348015610e6b57600080fd5b50610e7461335e565b005b348015610e8257600080fd5b50610e8b613369565b005b348015610e9957600080fd5b50610edc60048036036020811015610eb057600080fd5b81019080803573ffffffffffffffffffffffffffffffffffffffff169060200190929190505050613374565b005b348015610eea57600080fd5b50610f2d60048036036020811015610f0157600080fd5b81019080803573ffffffffffffffffffffffffffffffffffffffff1690602001909291905050506133bf565b604051808215151515815260200191505060405180910390f35b610f50336133dc565b565b610f5b336113b1565b610f6457600080fd5b803373ffffffffffffffffffffffffffffffffffffffff166006600083815260200190815260200160002060080160019054906101000a900473ffffffffffffffffffffffffffffffffffffffff1673ffffffffffffffffffffffffffffffffffffffff161461101f576040517f08c379a000000000000000000000000000000000000000000000000000000000815260040180806020018281038252602d815260200180613e64602d913960400191505060405180910390fd5b81600780600981111561102e57fe5b6006600084815260200190815260200160002060080160009054906101000a900460ff16600981111561105d57fe5b146110b3576040517f08c379a0000000000000000000000000000000000000000000000000000000008152600401808060200182810382526022815260200180613e916022913960400191505060405180910390fd5b60086006600086815260200190815260200160002060080160006101000a81548160ff021916908360098111156110e657fe5b021790555060066000858152602001908152602001600020600c0160009054906101000a900473ffffffffffffffffffffffffffffffffffffffff166006600086815260200190815260200160002060080160016101000a81548173ffffffffffffffffffffffffffffffffffffffff021916908373ffffffffffffffffffffffffffffffffffffffff1602179055507ff00b9a5725b80c54016f42114f6ed7792d22eecb116011c4afac29c57bef6c95846040518082815260200191505060405180910390a150505050565b60006111c982600161343690919063ffffffff16565b9050919050565b6111d9336134c8565b565b6111e4336113b1565b6111ed57600080fd5b803373ffffffffffffffffffffffffffffffffffffffff166006600083815260200190815260200160002060080160019054906101000a900473ffffffffffffffffffffffffffffffffffffffff1673ffffffffffffffffffffffffffffffffffffffff16146112a8576040517f08c379a000000000000000000000000000000000000000000000000000000000815260040180806020018281038252602d815260200180613e64602d913960400191505060405180910390fd5b8160068060098111156112b757fe5b6006600084815260200190815260200160002060080160009054906101000a900460ff1660098111156112e657fe5b1461133c576040517f08c379a0000000000000000000000000000000000000000000000000000000008152600401808060200182810382526022815260200180613e916022913960400191505060405180910390fd5b60076006600086815260200190815260200160002060080160006101000a81548160ff0219169083600981111561136f57fe5b02179055507f9d1715437821cd9a90cba5d1a68995c308d9ad9afc754ed9a1cff429760796e6846040518082815260200191505060405180910390a150505050565b60006113c782600261343690919063ffffffff16565b9050919050565b6113d6611e64565b73ffffffffffffffffffffffffffffffffffffffff163373ffffffffffffffffffffffffffffffffffffffff16141561142957611411611e64565b73ffffffffffffffffffffffffffffffffffffffff16ff5b565b611434336111b3565b6114a6576040517f08c379a00000000000000000000000000000000000000000000000000000000081526004018080602001828103825260138152602001807f4e65656420746f2062652061205772697465720000000000000000000000000081525060200191505060405180910390fd5b813373ffffffffffffffffffffffffffffffffffffffff166006600083815260200190815260200160002060080160019054906101000a900473ffffffffffffffffffffffffffffffffffffffff1673ffffffffffffffffffffffffffffffffffffffff1614611561576040517f08c379a000000000000000000000000000000000000000000000000000000000815260040180806020018281038252602d815260200180613e64602d913960400191505060405180910390fd5b82600080600981111561157057fe5b6006600084815260200190815260200160002060080160009054906101000a900460ff16600981111561159f57fe5b146115f5576040517f08c379a0000000000000000000000000000000000000000000000000000000008152600401808060200182810382526022815260200180613e916022913960400191505060405180910390fd5b836006600087815260200190815260200160002060080160016101000a81548173ffffffffffffffffffffffffffffffffffffffff021916908373ffffffffffffffffffffffffffffffffffffffff1602179055508360066000878152602001908152602001600020600a0160006101000a81548173ffffffffffffffffffffffffffffffffffffffff021916908373ffffffffffffffffffffffffffffffffffffffff16021790555060016006600087815260200190815260200160002060080160006101000a81548160ff021916908360098111156116d257fe5b02179055507fa1a7fb1df88af97284790f533c84a4284660c23f7631de9a03a258de840e4c158585604051808381526020018273ffffffffffffffffffffffffffffffffffffffff1673ffffffffffffffffffffffffffffffffffffffff1681526020019250505060405180910390a15050505050565b611751611e64565b73ffffffffffffffffffffffffffffffffffffffff163373ffffffffffffffffffffffffffffffffffffffff161461178857600080fd5b600073ffffffffffffffffffffffffffffffffffffffff166000809054906101000a900473ffffffffffffffffffffffffffffffffffffffff1673ffffffffffffffffffffffffffffffffffffffff167f5c486528ec3e3f0ea91181cff8116f02bfa350e03b8b6f12e00765adbb5af85c60405160405180910390a360008060006101000a81548173ffffffffffffffffffffffffffffffffffffffff021916908373ffffffffffffffffffffffffffffffffffffffff160217905550565b611850336111b3565b6118c2576040517f08c379a00000000000000000000000000000000000000000000000000000000081526004018080602001828103825260138152602001807f4e65656420746f2062652061205772697465720000000000000000000000000081525060200191505060405180910390fd5b813373ffffffffffffffffffffffffffffffffffffffff166006600083815260200190815260200160002060080160019054906101000a900473ffffffffffffffffffffffffffffffffffffffff1673ffffffffffffffffffffffffffffffffffffffff161461197d576040517f08c379a000000000000000000000000000000000000000000000000000000000815260040180806020018281038252602d815260200180613e64602d913960400191505060405180910390fd5b82600280600981111561198c57fe5b6006600084815260200190815260200160002060080160009054906101000a900460ff1660098111156119bb57fe5b14611a11576040517f08c379a0000000000000000000000000000000000000000000000000000000008152600401808060200182810382526022815260200180613e916022913960400191505060405180910390fd5b60066000868152602001908152602001600020600b0160009054906101000a900473ffffffffffffffffffffffffffffffffffffffff166006600087815260200190815260200160002060080160016101000a81548173ffffffffffffffffffffffffffffffffffffffff021916908373ffffffffffffffffffffffffffffffffffffffff16021790555083600660008781526020019081526020016000206005019080519060200190611ac6929190613d3e565b5060036006600087815260200190815260200160002060080160006101000a81548160ff02191690836009811115611afa57fe5b02179055507fbba19da8d116838213738bba933a0b950d375f39821adab661418376b93ac149856040518082815260200191505060405180910390a15050505050565b611b46336133bf565b611b4f57600080fd5b611b5881613522565b50565b611b64336113b1565b611b6d57600080fd5b611b768161357c565b50565b611b82336113b1565b611b8b57600080fd5b813373ffffffffffffffffffffffffffffffffffffffff166006600083815260200190815260200160002060080160019054906101000a900473ffffffffffffffffffffffffffffffffffffffff1673ffffffffffffffffffffffffffffffffffffffff1614611c46576040517f08c379a000000000000000000000000000000000000000000000000000000000815260040180806020018281038252602d815260200180613e64602d913960400191505060405180910390fd5b826001806009811115611c5557fe5b6006600084815260200190815260200160002060080160009054906101000a900460ff166009811115611c8457fe5b14611cda576040517f08c379a0000000000000000000000000000000000000000000000000000000008152600401808060200182810382526022815260200180613e916022913960400191505060405180910390fd5b6006600086815260200190815260200160002060090160009054906101000a900473ffffffffffffffffffffffffffffffffffffffff166006600087815260200190815260200160002060080160016101000a81548173ffffffffffffffffffffffffffffffffffffffff021916908373ffffffffffffffffffffffffffffffffffffffff1602179055508360066000878152602001908152602001600020600b0160006101000a81548173ffffffffffffffffffffffffffffffffffffffff021916908373ffffffffffffffffffffffffffffffffffffffff16021790555060026006600087815260200190815260200160002060080160006101000a81548160ff02191690836009811115611ded57fe5b02179055507f7b39c92a7e1a86e846edaeff6eba715a046352c596794c2a374269c126a997688585604051808381526020018273ffffffffffffffffffffffffffffffffffffffff1673ffffffffffffffffffffffffffffffffffffffff1681526020019250505060405180910390a15050505050565b60008060009054906101000a900473ffffffffffffffffffffffffffffffffffffffff16905090565b85600060066000838152602001908152602001600020600101541480611f5957503373ffffffffffffffffffffffffffffffffffffffff166006600083815260200190815260200160002060090160009054906101000a900473ffffffffffffffffffffffffffffffffffffffff1673ffffffffffffffffffffffffffffffffffffffff16148015611f58575060006009811115611f2757fe5b6006600083815260200190815260200160002060080160009054906101000a900460ff166009811115611f5657fe5b145b5b611fcb576040517f08c379a00000000000000000000000000000000000000000000000000000000081526004018080602001828103825260128152602001807f55504320616c726561647920696e20757365000000000000000000000000000081525060200191505060405180910390fd5b611fd4336111b3565b612046576040517f08c379a00000000000000000000000000000000000000000000000000000000081526004018080602001828103825260138152602001807f4e65656420746f2062652061205772697465720000000000000000000000000081525060200191505060405180910390fd5b604051806101c001604052806005548152602001888152602001878152602001868152602001858152602001848152602001604051806020016040528060008152508152602001838152602001600060098111156120a057fe5b81526020013373ffffffffffffffffffffffffffffffffffffffff1681526020013373ffffffffffffffffffffffffffffffffffffffff168152602001600073ffffffffffffffffffffffffffffffffffffffff168152602001600073ffffffffffffffffffffffffffffffffffffffff168152602001600073ffffffffffffffffffffffffffffffffffffffff168152506006600089815260200190815260200160002060008201518160000155602082015181600101556040820151816002019080519060200190612175929190613dbe565b506060820151816003019080519060200190612192929190613dbe565b5060808201518160040190805190602001906121af929190613dbe565b5060a08201518160050190805190602001906121cc929190613dbe565b5060c08201518160060190805190602001906121e9929190613dbe565b5060e082015181600701556101008201518160080160006101000a81548160ff0219169083600981111561221957fe5b02179055506101208201518160080160016101000a81548173ffffffffffffffffffffffffffffffffffffffff021916908373ffffffffffffffffffffffffffffffffffffffff1602179055506101408201518160090160006101000a81548173ffffffffffffffffffffffffffffffffffffffff021916908373ffffffffffffffffffffffffffffffffffffffff16021790555061016082015181600a0160006101000a81548173ffffffffffffffffffffffffffffffffffffffff021916908373ffffffffffffffffffffffffffffffffffffffff16021790555061018082015181600b0160006101000a81548173ffffffffffffffffffffffffffffffffffffffff021916908373ffffffffffffffffffffffffffffffffffffffff1602179055506101a082015181600c0160006101000a81548173ffffffffffffffffffffffffffffffffffffffff021916908373ffffffffffffffffffffffffffffffffffffffff1602179055509050506005600081548092919060010191905055507f51be7b3427b12674aea14d3d0ec2afa93c8508ae3da8cbfa0407ada0025f357c876040518082815260200191505060405180910390a150505050505050565b60008060009054906101000a900473ffffffffffffffffffffffffffffffffffffffff1673ffffffffffffffffffffffffffffffffffffffff163373ffffffffffffffffffffffffffffffffffffffff1614905090565b600061244882600461343690919063ffffffff16565b9050919050565b600080606080606080600060606000600660008b815260200190815260200160002090508060000154985080600101549750806002018054600181600116156101000203166002900480601f0160208091040260200160405190810160405280929190818152602001828054600181600116156101000203166002900480156125195780601f106124ee57610100808354040283529160200191612519565b820191906000526020600020905b8154815290600101906020018083116124fc57829003601f168201915b50505050509650806003018054600181600116156101000203166002900480601f0160208091040260200160405190810160405280929190818152602001828054600181600116156101000203166002900480156125b85780601f1061258d576101008083540402835291602001916125b8565b820191906000526020600020905b81548152906001019060200180831161259b57829003601f168201915b50505050509550806004018054600181600116156101000203166002900480601f0160208091040260200160405190810160405280929190818152602001828054600181600116156101000203166002900480156126575780601f1061262c57610100808354040283529160200191612657565b820191906000526020600020905b81548152906001019060200180831161263a57829003601f168201915b50505050509450806005018054600181600116156101000203166002900480601f0160208091040260200160405190810160405280929190818152602001828054600181600116156101000203166002900480156126f65780601f106126cb576101008083540402835291602001916126f6565b820191906000526020600020905b8154815290600101906020018083116126d957829003601f168201915b505050505093508060070154925061271e8160080160009054906101000a900460ff166135d6565b915050919395975091939597565b61273533612432565b61273e57600080fd5b803373ffffffffffffffffffffffffffffffffffffffff166006600083815260200190815260200160002060080160019054906101000a900473ffffffffffffffffffffffffffffffffffffffff1673ffffffffffffffffffffffffffffffffffffffff16146127f9576040517f08c379a000000000000000000000000000000000000000000000000000000000815260040180806020018281038252602d815260200180613e64602d913960400191505060405180910390fd5b816000600660008381526020019081526020016000206007015411612886576040517f08c379a00000000000000000000000000000000000000000000000000000000081526004018080602001828103825260128152602001807f696e76616c696420626f6f6b207072696365000000000000000000000000000081525060200191505060405180910390fd5b6006600082815260200190815260200160002060070154341015612912576040517f08c379a000000000000000000000000000000000000000000000000000000000815260040180806020018281038252601f8152602001807f6e656564206d6f7265206d6f6e657920746f206275792074686520626f6f6b0081525060200191505060405180910390fd5b8283600580600981111561292257fe5b6006600084815260200190815260200160002060080160009054906101000a900460ff16600981111561295157fe5b146129a7576040517f08c379a0000000000000000000000000000000000000000000000000000000008152600401808060200182810382526022815260200180613e916022913960400191505060405180910390fd5b3360066000888152602001908152602001600020600c0160006101000a81548173ffffffffffffffffffffffffffffffffffffffff021916908373ffffffffffffffffffffffffffffffffffffffff160217905550600680600088815260200190815260200160002060080160006101000a81548160ff02191690836009811115612a2e57fe5b02179055506006600087815260200190815260200160002060090160009054906101000a900473ffffffffffffffffffffffffffffffffffffffff1673ffffffffffffffffffffffffffffffffffffffff166108fc60066000898152602001908152602001600020600701549081150290604051600060405180830381858888f19350505050158015612ac5573d6000803e3d6000fd5b507f1edc491415bb8b2a6bd5517bda12c1c0863c42784b2c87c08ad5b33d5c9a68a08633604051808381526020018273ffffffffffffffffffffffffffffffffffffffff1673ffffffffffffffffffffffffffffffffffffffff1681526020019250505060405180910390a15050600060066000838152602001908152602001600020600701549050600081340390503373ffffffffffffffffffffffffffffffffffffffff166108fc829081150290604051600060405180830381858888f19350505050158015612b9b573d6000803e3d6000fd5b50505050505050565b612bad336133bf565b612bb657600080fd5b813373ffffffffffffffffffffffffffffffffffffffff166006600083815260200190815260200160002060080160019054906101000a900473ffffffffffffffffffffffffffffffffffffffff1673ffffffffffffffffffffffffffffffffffffffff1614612c71576040517f08c379a000000000000000000000000000000000000000000000000000000000815260040180806020018281038252602d815260200180613e64602d913960400191505060405180910390fd5b826003806009811115612c8057fe5b6006600084815260200190815260200160002060080160009054906101000a900460ff166009811115612caf57fe5b14612d05576040517f08c379a0000000000000000000000000000000000000000000000000000000008152600401808060200182810382526022815260200180613e916022913960400191505060405180910390fd5b60066000868152602001908152602001600020600a0160009054906101000a900473ffffffffffffffffffffffffffffffffffffffff166006600087815260200190815260200160002060080160016101000a81548173ffffffffffffffffffffffffffffffffffffffff021916908373ffffffffffffffffffffffffffffffffffffffff16021790555083600660008781526020019081526020016000206005019080519060200190612dba929190613d3e565b5060046006600087815260200190815260200160002060080160006101000a81548160ff02191690836009811115612dee57fe5b02179055507f969160ae384f3a18ae5b2b990d953d5cdefa2a16a5ac574612cfc9f4dfe61427856040518082815260200191505060405180910390a15050505050565b612e3a336113b1565b612e4357600080fd5b813373ffffffffffffffffffffffffffffffffffffffff166006600083815260200190815260200160002060080160019054906101000a900473ffffffffffffffffffffffffffffffffffffffff1673ffffffffffffffffffffffffffffffffffffffff1614612efe576040517f08c379a000000000000000000000000000000000000000000000000000000000815260040180806020018281038252602d815260200180613e64602d913960400191505060405180910390fd5b826004806009811115612f0d57fe5b6006600084815260200190815260200160002060080160009054906101000a900460ff166009811115612f3c57fe5b14612f92576040517f08c379a0000000000000000000000000000000000000000000000000000000008152600401808060200182810382526022815260200180613e916022913960400191505060405180910390fd5b60056006600087815260200190815260200160002060080160006101000a81548160ff02191690836009811115612fc557fe5b021790555083600660008781526020019081526020016000206006019080519060200190612ff4929190613d3e565b5060056006600087815260200190815260200160002060080160006101000a81548160ff0219169083600981111561302857fe5b02179055507fdf745ce9e4e0c18059192813007cf33101a77bed4c4adb861cf65bf2edff01c785856040518083815260200180602001828103825283818151815260200191508051906020019080838360005b8381101561309657808201518184015260208101905061307b565b50505050905090810190601f1680156130c35780820380516001836020036101000a031916815260200191505b50935050505060405180910390a15050505050565b60066000828152602001908152602001600020600c0160009054906101000a900473ffffffffffffffffffffffffffffffffffffffff168073ffffffffffffffffffffffffffffffffffffffff163373ffffffffffffffffffffffffffffffffffffffff16146131b0576040517f08c379a00000000000000000000000000000000000000000000000000000000081526004018080602001828103825260198152602001807f796f7520646f6e27742068617665207065726d697373696f6e0000000000000081525060200191505060405180910390fd5b8160088060098111156131bf57fe5b6006600084815260200190815260200160002060080160009054906101000a900460ff1660098111156131ee57fe5b14613244576040517f08c379a0000000000000000000000000000000000000000000000000000000008152600401808060200182810382526022815260200180613e916022913960400191505060405180910390fd5b60096006600086815260200190815260200160002060080160006101000a81548160ff0219169083600981111561327757fe5b02179055507fa8142743f8f70a4c26f3691cf4ed59718381fb2f18070ec52be1f1022d855557846040518082815260200191505060405180910390a150505050565b6132c233612432565b6132cb57600080fd5b6132d481613987565b50565b6132e0336111b3565b613352576040517f08c379a00000000000000000000000000000000000000000000000000000000081526004018080602001828103825260138152602001807f4e65656420746f2062652061205772697465720000000000000000000000000081525060200191505060405180910390fd5b61335b816139e1565b50565b61336733613a3b565b565b61337233613a95565b565b61337c611e64565b73ffffffffffffffffffffffffffffffffffffffff163373ffffffffffffffffffffffffffffffffffffffff16146133b357600080fd5b6133bc81613aef565b50565b60006133d582600361343690919063ffffffff16565b9050919050565b6133f0816002613be790919063ffffffff16565b8073ffffffffffffffffffffffffffffffffffffffff167f215ef528757ca84646fb5c401012a31bcbf1f99487a51e57a57a0c0afa0d3dd260405160405180910390a250565b60008073ffffffffffffffffffffffffffffffffffffffff168273ffffffffffffffffffffffffffffffffffffffff16141561347157600080fd5b8260000160008373ffffffffffffffffffffffffffffffffffffffff1673ffffffffffffffffffffffffffffffffffffffff16815260200190815260200160002060009054906101000a900460ff16905092915050565b6134dc816004613be790919063ffffffff16565b8073ffffffffffffffffffffffffffffffffffffffff167f4c6c3c4c8568e507a40a8bd53645566aa74e705cc2e96e6768e9097c9b2a895d60405160405180910390a250565b613536816003613c9290919063ffffffff16565b8073ffffffffffffffffffffffffffffffffffffffff167fa78fc22d4599bb0c6086d2af06bc1158a45e81f81994d0734c428ab181c1463f60405160405180910390a250565b613590816002613c9290919063ffffffff16565b8073ffffffffffffffffffffffffffffffffffffffff167f466d40d3c5afb07f32aa87fa68d587f144c6fee2dfb883b3363937d5427e044260405160405180910390a250565b6060600060098111156135e557fe5b8260098111156135f157fe5b1415613634576040518060400160405280600881526020017f41627374726163740000000000000000000000000000000000000000000000008152509050613982565b6001600981111561364157fe5b82600981111561364d57fe5b1415613690576040518060400160405280600981526020017f5375626d697474656400000000000000000000000000000000000000000000008152509050613982565b6002600981111561369d57fe5b8260098111156136a957fe5b14156136ec576040518060400160405280600881526020017f417070726f7665640000000000000000000000000000000000000000000000008152509050613982565b600360098111156136f957fe5b82600981111561370557fe5b1415613748576040518060400160405280600781526020017f5772697474656e000000000000000000000000000000000000000000000000008152509050613982565b6004600981111561375557fe5b82600981111561376157fe5b14156137a4576040518060400160405280600881526020017f52657669657765640000000000000000000000000000000000000000000000008152509050613982565b600560098111156137b157fe5b8260098111156137bd57fe5b1415613800576040518060400160405280600381526020017f41727400000000000000000000000000000000000000000000000000000000008152509050613982565b6006600981111561380d57fe5b82600981111561381957fe5b141561385c576040518060400160405280600781526020017f4f726465726564000000000000000000000000000000000000000000000000008152509050613982565b6007600981111561386957fe5b82600981111561387557fe5b14156138b8576040518060400160405280600881526020017f50726f64756365640000000000000000000000000000000000000000000000008152509050613982565b600860098111156138c557fe5b8260098111156138d157fe5b1415613914576040518060400160405280600781526020017f53686970706564000000000000000000000000000000000000000000000000008152509050613982565b60098081111561392057fe5b82600981111561392c57fe5b141561396f576040518060400160405280600881526020017f52656365697665640000000000000000000000000000000000000000000000008152509050613982565b6040518060200160405280600081525090505b919050565b61399b816004613c9290919063ffffffff16565b8073ffffffffffffffffffffffffffffffffffffffff167f2a6869cd9cbe00cc8218e41a39f0860576b3964458f90758c988efa067d16bc260405160405180910390a250565b6139f5816001613c9290919063ffffffff16565b8073ffffffffffffffffffffffffffffffffffffffff167f6ff3aa2ea7b53070f6d9d07a445d338d89e8edef44250ffa8be19f53910d4a2e60405160405180910390a250565b613a4f816001613be790919063ffffffff16565b8073ffffffffffffffffffffffffffffffffffffffff167f86e5bbceda94081c32220d685f37cc4e3ea7bb0be2dfbf0cb703579505a5390e60405160405180910390a250565b613aa9816003613be790919063ffffffff16565b8073ffffffffffffffffffffffffffffffffffffffff167f49145f5509d304a1345a43a563c576514a1b93d345ffca3905a2bed1d867442c60405160405180910390a250565b600073ffffffffffffffffffffffffffffffffffffffff168173ffffffffffffffffffffffffffffffffffffffff161415613b2957600080fd5b8073ffffffffffffffffffffffffffffffffffffffff166000809054906101000a900473ffffffffffffffffffffffffffffffffffffffff1673ffffffffffffffffffffffffffffffffffffffff167f5c486528ec3e3f0ea91181cff8116f02bfa350e03b8b6f12e00765adbb5af85c60405160405180910390a3806000806101000a81548173ffffffffffffffffffffffffffffffffffffffff021916908373ffffffffffffffffffffffffffffffffffffffff16021790555050565b600073ffffffffffffffffffffffffffffffffffffffff168173ffffffffffffffffffffffffffffffffffffffff161415613c2157600080fd5b613c2b8282613436565b613c3457600080fd5b60008260000160008373ffffffffffffffffffffffffffffffffffffffff1673ffffffffffffffffffffffffffffffffffffffff16815260200190815260200160002060006101000a81548160ff0219169083151502179055505050565b600073ffffffffffffffffffffffffffffffffffffffff168173ffffffffffffffffffffffffffffffffffffffff161415613ccc57600080fd5b613cd68282613436565b15613ce057600080fd5b60018260000160008373ffffffffffffffffffffffffffffffffffffffff1673ffffffffffffffffffffffffffffffffffffffff16815260200190815260200160002060006101000a81548160ff0219169083151502179055505050565b828054600181600116156101000203166002900490600052602060002090601f016020900481019282601f10613d7f57805160ff1916838001178555613dad565b82800160010185558215613dad579182015b82811115613dac578251825591602001919060010190613d91565b5b509050613dba9190613e3e565b5090565b828054600181600116156101000203166002900490600052602060002090601f016020900481019282601f10613dff57805160ff1916838001178555613e2d565b82800160010185558215613e2d579182015b82811115613e2c578251825591602001919060010190613e11565b5b509050613e3a9190613e3e565b5090565b613e6091905b80821115613e5c576000816000905550600101613e44565b5090565b9056fe596f7520646f6e27742068617665207065726d697373696f6e20746f206d6f64696679207468697320626f6f6b496e76616c696420426f6f6b20737461746520666f72207468697320616374696f6ea165627a7a72305820ed83b3d78c1351e4b5a6da21a19fa9e67962c8a4928e2f95590dfc4031578f7a0029",
  "source": "pragma solidity ^0.5.2;\r\nimport '../core/Ownable.sol';\r\nimport '../accesscontrol/WriterRole.sol';\r\nimport '../accesscontrol/LibraryRole.sol';\r\nimport '../accesscontrol/PublisherRole.sol';\r\nimport '../accesscontrol/ReviewerRole.sol';\r\n\r\n// Define a contract 'Supplychain'\r\ncontract BookSupplyChain is Ownable, WriterRole, PublisherRole, ReviewerRole, LibraryRole {\r\n    uint  currentSku;\r\n\r\n    constructor() public payable {\r\n        currentSku = 1;\r\n    }\r\n\r\n    enum State {\r\n        Abstract, // 0\r\n        Submitted, // 1\r\n        Approved, // 2\r\n        Written, // 3\r\n        Reviewed, // 4\r\n        Art, // 5\r\n        Ordered, // 6\r\n        Produced, // 7\r\n        Shipped, // 8\r\n        Received  // 9\r\n    }\r\n\r\n    // Define a struct 'Book' with the following fields:\r\n    struct Book {\r\n        uint sku;\r\n        uint upc;\r\n        string writerName;\r\n        string title;\r\n        string bAbstract;\r\n        string text;\r\n        string assetsUrl;\r\n        uint price;\r\n        State state;\r\n        address owner;\r\n        address payable writer;\r\n        address publisher;\r\n        address reviewer;\r\n        address payable buyer;\r\n    }\r\n\r\n    mapping(uint => Book) Books;\r\n\r\n    event Abstract(uint upc);\r\n    event Submitted(uint upc, address publisher);\r\n    event Approved(uint upc, address reviewer);\r\n    event Written(uint upc);\r\n    event Reviewed(uint upc);\r\n    event Art(uint upc, string assetsUrl);\r\n    event Ordered(uint upc, address buyer);\r\n    event Produced(uint upc);\r\n    event Shipped(uint upc);\r\n    event Received(uint upc);\r\n\r\n    function stateLabel(State state) internal pure returns (string memory) {\r\n        if (state == State.Abstract) return \"Abstract\";\r\n        if (state == State.Submitted) return \"Submitted\";\r\n        if (state == State.Approved) return \"Approved\";\r\n        if (state == State.Written) return \"Written\";\r\n        if (state == State.Reviewed) return \"Reviewed\";\r\n        if (state == State.Art) return \"Art\";\r\n        if (state == State.Ordered) return \"Ordered\";\r\n        if (state == State.Produced) return \"Produced\";\r\n        if (state == State.Shipped) return \"Shipped\";\r\n        if (state == State.Received) return \"Received\";\r\n        return \"\";\r\n    }\r\n\r\n    modifier availableUpc(uint _upc) {\r\n        require(Books[_upc].upc == 0 ||\r\n        (Books[_upc].writer == msg.sender && Books[_upc].state == State.Abstract),\r\n            \"UPC already in use\");\r\n        _;\r\n    }\r\n\r\n    modifier onlyOwner() {\r\n        require(msg.sender == owner());\r\n        _;\r\n    }\r\n\r\n    modifier callerIs (address _address) {\r\n        require(msg.sender == _address, \"you don't have permission\");\r\n        _;\r\n    }\r\n\r\n    modifier paidEnough(uint _upc) {\r\n        require(Books[_upc].price > 0, \"invalid book price\");\r\n        require(msg.value >= Books[_upc].price, \"need more money to buy the book\");\r\n        _;\r\n    }\r\n\r\n    modifier checkValue(uint _upc) {\r\n        _;\r\n        uint _price = Books[_upc].price;\r\n        uint amountToReturn = msg.value - _price;\r\n        msg.sender.transfer(amountToReturn);\r\n    }\r\n\r\n    modifier currentOwner(uint _upc) {\r\n        require(Books[_upc].owner == msg.sender, \"You don't have permission to modify this book\");\r\n        _;\r\n    }\r\n\r\n    modifier bookStateIs(uint _upc, State state) {\r\n        require(Books[_upc].state == state, \"Invalid Book state for this action\");\r\n        _;\r\n    }\r\n\r\n    // DONE\r\n    // Define a function 'kill' if required\r\n    function kill() public {\r\n        if (msg.sender == owner()) {\r\n            selfdestruct(owner());\r\n        }\r\n    }\r\n\r\n    // Write(or update) the abstract\r\n    function writerAbstract(uint _upc, string memory _writerName, string memory _draftTitle,\r\n        string memory _bAbstract, string memory _draft, uint _price)\r\n    public availableUpc(_upc) onlyWriter {\r\n        // Initialize only the essential\r\n        Books[_upc] = Book({\r\n            sku : currentSku,\r\n            upc : _upc,\r\n            writerName : _writerName,\r\n            title : _draftTitle,\r\n            bAbstract : _bAbstract,\r\n            text : _draft,\r\n            assetsUrl : \"\",\r\n            price : _price,\r\n            state : State.Abstract,\r\n            owner : msg.sender,\r\n            writer : msg.sender,\r\n            publisher : address(0),\r\n            reviewer : address(0),\r\n            buyer : address(0)\r\n            });\r\n\r\n        currentSku++;\r\n\r\n        // Emit the appropriate event\r\n        emit Abstract(_upc);\r\n    }\r\n\r\n    // After finish the abstract submit to some Publisher\r\n    function submitAbstract(uint _upc, address publisher) public\r\n    onlyWriter currentOwner(_upc)\r\n    bookStateIs(_upc, State.Abstract) {\r\n        Books[_upc].owner = publisher;\r\n        Books[_upc].publisher = publisher;\r\n        Books[_upc].state = State.Submitted;\r\n\r\n        // Emit the appropriate event\r\n        emit Submitted(_upc, publisher);\r\n    }\r\n\r\n    // in the approval, the publisher set the reviewer\r\n    function approves(uint _upc, address reviewer) public\r\n    onlyPublisher currentOwner(_upc)\r\n    bookStateIs(_upc, State.Submitted) {\r\n        // Update the appropriate fields\r\n        Books[_upc].owner = Books[_upc].writer;\r\n        Books[_upc].reviewer = reviewer;\r\n        Books[_upc].state = State.Approved;\r\n\r\n        // Emit the appropriate event\r\n        emit Approved(_upc, reviewer);\r\n    }\r\n\r\n    function writeBook(uint _upc, string memory text) public\r\n    onlyWriter currentOwner(_upc)\r\n    bookStateIs(_upc, State.Approved) {\r\n\r\n        Books[_upc].owner = Books[_upc].reviewer;\r\n        Books[_upc].text = text;\r\n        Books[_upc].state = State.Written;\r\n\r\n        emit Written(_upc);\r\n    }\r\n\r\n    // in the review, the reviewer set the final text\r\n    function review(uint _upc, string memory finalText) public\r\n    onlyReviewer currentOwner(_upc)\r\n    bookStateIs(_upc, State.Written) {\r\n        Books[_upc].owner = Books[_upc].publisher;\r\n        Books[_upc].text = finalText;\r\n        Books[_upc].state = State.Reviewed;\r\n\r\n        emit Reviewed(_upc);\r\n    }\r\n\r\n    function artBook(uint _upc, string memory _assetsUrl) public\r\n    onlyPublisher currentOwner(_upc)\r\n    bookStateIs(_upc, State.Reviewed) {\r\n        Books[_upc].state = State.Art;\r\n        Books[_upc].assetsUrl = _assetsUrl;\r\n        Books[_upc].state = State.Art;\r\n\r\n        // emit the event showing the book art URL\r\n        emit Art(_upc, _assetsUrl);\r\n    }\r\n\r\n    function orderBook(uint _upc) public payable\r\n    onlyLibrary currentOwner(_upc)\r\n    paidEnough(_upc)\r\n    checkValue(_upc)\r\n    bookStateIs(_upc, State.Art)\r\n    {\r\n        Books[_upc].buyer = msg.sender;\r\n        Books[_upc].state = State.Ordered;\r\n        Books[_upc].writer.transfer(Books[_upc].price);\r\n\r\n        emit Ordered(_upc, msg.sender);\r\n    }\r\n\r\n\r\n    function produceBook(uint _upc) public\r\n    onlyPublisher currentOwner(_upc)\r\n    bookStateIs(_upc, State.Ordered) {\r\n        Books[_upc].state = State.Produced;\r\n\r\n        emit Produced(_upc);\r\n    }\r\n\r\n    function ship(uint _upc) public\r\n    onlyPublisher currentOwner(_upc)\r\n    bookStateIs(_upc, State.Produced) {\r\n        Books[_upc].state = State.Shipped;\r\n        Books[_upc].owner = Books[_upc].buyer;\r\n\r\n        emit Shipped(_upc);\r\n    }\r\n\r\n    function receive(uint _upc) public\r\n    callerIs(Books[_upc].buyer)\r\n    bookStateIs(_upc, State.Shipped) {\r\n        Books[_upc].state = State.Received;\r\n\r\n        // Boom! Book delivered\r\n        emit Received(_upc);\r\n    }\r\n\r\n    function fetchBook(uint _upc) public view returns\r\n    (\r\n        uint sku,\r\n        uint upc,\r\n        string memory writerName,\r\n        string memory title,\r\n        string memory bAbstract,\r\n        string memory text,\r\n        uint price,\r\n        string memory state\r\n        \r\n    )\r\n    {\r\n        // Assign values to the 8 parameters\r\n        Book storage book = Books[_upc];\r\n\r\n        sku = book.sku;\r\n        upc = book.upc;\r\n        writerName = book.writerName;\r\n        title = book.title;\r\n        bAbstract = book.bAbstract;\r\n        text = book.text;\r\n        price = book.price;\r\n        state = stateLabel(book.state);\r\n    }\r\n}\r\n",
  "sourcePath": "C:/Projects/blockchainnd-supplychain-part-b/contracts/base/BookSupplyChain.sol",
  "compiler": {
    "name": "solc",
    "version": "0.5.7+commit.6da8b019.Emscripten.clang"
  },
  "schemaVersion": "3.0.6",
  "updatedAt": "2019-04-07T03:22:22.801Z",
  "devdoc": {
    "methods": {}
  },
  "userdoc": {
    "methods": {
      "isOwner()": {
        "notice": "Check if the calling address is the owner of the contract"
      },
      "owner()": {
        "notice": "Look up the address of the owner"
      },
      "renounceOwnership()": {
        "notice": "Define a function to renounce ownerhip"
      },
      "transferOwnership(address)": {
        "notice": "Define a public function to transfer ownership"
      }
    }
  }
}