{
  "contractName": "Book",
  "abi": [
    {
      "inputs": [],
      "payable": true,
      "stateMutability": "payable",
      "type": "constructor"
    },
    {
      "anonymous": false,
      "inputs": [
        {
          "indexed": false,
          "name": "upc",
          "type": "uint256"
        }
      ],
      "name": "Abstract",
      "type": "event"
    },
    {
      "anonymous": false,
      "inputs": [
        {
          "indexed": false,
          "name": "upc",
          "type": "uint256"
        },
        {
          "indexed": false,
          "name": "publisher",
          "type": "address"
        }
      ],
      "name": "Submitted",
      "type": "event"
    },
    {
      "anonymous": false,
      "inputs": [
        {
          "indexed": false,
          "name": "upc",
          "type": "uint256"
        },
        {
          "indexed": false,
          "name": "reviewer",
          "type": "address"
        }
      ],
      "name": "Approved",
      "type": "event"
    },
    {
      "anonymous": false,
      "inputs": [
        {
          "indexed": false,
          "name": "upc",
          "type": "uint256"
        }
      ],
      "name": "Written",
      "type": "event"
    },
    {
      "anonymous": false,
      "inputs": [
        {
          "indexed": false,
          "name": "upc",
          "type": "uint256"
        }
      ],
      "name": "Reviewed",
      "type": "event"
    },
    {
      "anonymous": false,
      "inputs": [
        {
          "indexed": false,
          "name": "upc",
          "type": "uint256"
        },
        {
          "indexed": false,
          "name": "assetsUrl",
          "type": "string"
        }
      ],
      "name": "Art",
      "type": "event"
    },
    {
      "anonymous": false,
      "inputs": [
        {
          "indexed": false,
          "name": "upc",
          "type": "uint256"
        },
        {
          "indexed": false,
          "name": "buyer",
          "type": "address"
        }
      ],
      "name": "Ordered",
      "type": "event"
    },
    {
      "anonymous": false,
      "inputs": [
        {
          "indexed": false,
          "name": "upc",
          "type": "uint256"
        }
      ],
      "name": "Produced",
      "type": "event"
    },
    {
      "anonymous": false,
      "inputs": [
        {
          "indexed": false,
          "name": "upc",
          "type": "uint256"
        }
      ],
      "name": "Shipped",
      "type": "event"
    },
    {
      "anonymous": false,
      "inputs": [
        {
          "indexed": false,
          "name": "upc",
          "type": "uint256"
        }
      ],
      "name": "Received",
      "type": "event"
    },
    {
      "constant": false,
      "inputs": [],
      "name": "kill",
      "outputs": [],
      "payable": false,
      "stateMutability": "nonpayable",
      "type": "function"
    },
    {
      "constant": false,
      "inputs": [
        {
          "name": "_upc",
          "type": "uint256"
        },
        {
          "name": "_writerName",
          "type": "string"
        },
        {
          "name": "_draftTitle",
          "type": "string"
        },
        {
          "name": "_bAbstract",
          "type": "string"
        },
        {
          "name": "_draft",
          "type": "string"
        },
        {
          "name": "_price",
          "type": "uint256"
        }
      ],
      "name": "registerBook",
      "outputs": [],
      "payable": false,
      "stateMutability": "nonpayable",
      "type": "function"
    },
    {
      "constant": false,
      "inputs": [
        {
          "name": "_upc",
          "type": "uint256"
        },
        {
          "name": "publisher",
          "type": "address"
        }
      ],
      "name": "submit",
      "outputs": [],
      "payable": false,
      "stateMutability": "nonpayable",
      "type": "function"
    },
    {
      "constant": false,
      "inputs": [
        {
          "name": "_upc",
          "type": "uint256"
        },
        {
          "name": "reviewer",
          "type": "address"
        }
      ],
      "name": "approve",
      "outputs": [],
      "payable": false,
      "stateMutability": "nonpayable",
      "type": "function"
    },
    {
      "constant": false,
      "inputs": [
        {
          "name": "_upc",
          "type": "uint256"
        },
        {
          "name": "text",
          "type": "string"
        }
      ],
      "name": "write",
      "outputs": [],
      "payable": false,
      "stateMutability": "nonpayable",
      "type": "function"
    },
    {
      "constant": false,
      "inputs": [
        {
          "name": "_upc",
          "type": "uint256"
        },
        {
          "name": "finalText",
          "type": "string"
        }
      ],
      "name": "review",
      "outputs": [],
      "payable": false,
      "stateMutability": "nonpayable",
      "type": "function"
    },
    {
      "constant": false,
      "inputs": [
        {
          "name": "_upc",
          "type": "uint256"
        },
        {
          "name": "_assetsUrl",
          "type": "string"
        }
      ],
      "name": "artBook",
      "outputs": [],
      "payable": false,
      "stateMutability": "nonpayable",
      "type": "function"
    },
    {
      "constant": false,
      "inputs": [
        {
          "name": "_upc",
          "type": "uint256"
        }
      ],
      "name": "orderBook",
      "outputs": [],
      "payable": true,
      "stateMutability": "payable",
      "type": "function"
    },
    {
      "constant": false,
      "inputs": [
        {
          "name": "_upc",
          "type": "uint256"
        }
      ],
      "name": "produceBook",
      "outputs": [],
      "payable": false,
      "stateMutability": "nonpayable",
      "type": "function"
    },
    {
      "constant": false,
      "inputs": [
        {
          "name": "_upc",
          "type": "uint256"
        }
      ],
      "name": "ship",
      "outputs": [],
      "payable": false,
      "stateMutability": "nonpayable",
      "type": "function"
    },
    {
      "constant": false,
      "inputs": [
        {
          "name": "_upc",
          "type": "uint256"
        }
      ],
      "name": "receive",
      "outputs": [],
      "payable": false,
      "stateMutability": "nonpayable",
      "type": "function"
    },
    {
      "constant": true,
      "inputs": [
        {
          "name": "_upc",
          "type": "uint256"
        }
      ],
      "name": "fetchBook",
      "outputs": [
        {
          "name": "sku",
          "type": "uint256"
        },
        {
          "name": "upc",
          "type": "uint256"
        },
        {
          "name": "writerName",
          "type": "string"
        },
        {
          "name": "title",
          "type": "string"
        },
        {
          "name": "bAbstract",
          "type": "string"
        },
        {
          "name": "text",
          "type": "string"
        },
        {
          "name": "price",
          "type": "uint256"
        }
      ],
      "payable": false,
      "stateMutability": "view",
      "type": "function"
    }
  ],
  "bytecode": "0x6080604052336000806101000a81548173ffffffffffffffffffffffffffffffffffffffff021916908373ffffffffffffffffffffffffffffffffffffffff16021790555060018081905550612a9e8061005a6000396000f3fe6080604052600436106100c4576000357c010000000000000000000000000000000000000000000000000000000090048063abba79ff11610081578063abba79ff14610463578063bf032aca14610535578063c354b91a146107d6578063cba2534f146108a8578063f532e86a146108e3578063febe49091461093e576100c4565b8063216a3382146100c9578063244f643b1461019b5780633836a7f6146101d657806341c0e1b514610211578063a1d49acf14610228578063a20b6e3414610435575b600080fd5b3480156100d557600080fd5b50610199600480360360408110156100ec57600080fd5b81019080803590602001909291908035906020019064010000000081111561011357600080fd5b82018360208201111561012557600080fd5b8035906020019184600183028401116401000000008311171561014757600080fd5b91908080601f016020809104026020016040519081016040528093929190818152602001838380828437600081840152601f19601f820116905080830192505050505050509192919290505050610999565b005b3480156101a757600080fd5b506101d4600480360360208110156101be57600080fd5b8101908080359060200190929190505050610c31565b005b3480156101e257600080fd5b5061020f600480360360208110156101f957600080fd5b8101908080359060200190929190505050610e9d565b005b34801561021d57600080fd5b5061022661107e565b005b34801561023457600080fd5b506102616004803603602081101561024b57600080fd5b810190808035906020019092919050505061110f565b604051808881526020018781526020018060200180602001806020018060200186815260200185810385528a818151815260200191508051906020019080838360005b838110156102bf5780820151818401526020810190506102a4565b50505050905090810190601f1680156102ec5780820380516001836020036101000a031916815260200191505b50858103845289818151815260200191508051906020019080838360005b8381101561032557808201518184015260208101905061030a565b50505050905090810190601f1680156103525780820380516001836020036101000a031916815260200191505b50858103835288818151815260200191508051906020019080838360005b8381101561038b578082015181840152602081019050610370565b50505050905090810190601f1680156103b85780820380516001836020036101000a031916815260200191505b50858103825287818151815260200191508051906020019080838360005b838110156103f15780820151818401526020810190506103d6565b50505050905090810190601f16801561041e5780820380516001836020036101000a031916815260200191505b509b50505050505050505050505060405180910390f35b6104616004803603602081101561044b57600080fd5b81019080803590602001909291905050506113cd565b005b34801561046f57600080fd5b506105336004803603604081101561048657600080fd5b8101908080359060200190929190803590602001906401000000008111156104ad57600080fd5b8201836020820111156104bf57600080fd5b803590602001918460018302840111640100000000831117156104e157600080fd5b91908080601f016020809104026020016040519081016040528093929190818152602001838380828437600081840152601f19601f820116905080830192505050505050509192919290505050611778565b005b34801561054157600080fd5b506107d4600480360360c081101561055857600080fd5b81019080803590602001909291908035906020019064010000000081111561057f57600080fd5b82018360208201111561059157600080fd5b803590602001918460018302840111640100000000831117156105b357600080fd5b91908080601f016020809104026020016040519081016040528093929190818152602001838380828437600081840152601f19601f8201169050808301925050505050505091929192908035906020019064010000000081111561061657600080fd5b82018360208201111561062857600080fd5b8035906020019184600183028401116401000000008311171561064a57600080fd5b91908080601f016020809104026020016040519081016040528093929190818152602001838380828437600081840152601f19601f820116905080830192505050505050509192919290803590602001906401000000008111156106ad57600080fd5b8201836020820111156106bf57600080fd5b803590602001918460018302840111640100000000831117156106e157600080fd5b91908080601f016020809104026020016040519081016040528093929190818152602001838380828437600081840152601f19601f8201169050808301925050505050505091929192908035906020019064010000000081111561074457600080fd5b82018360208201111561075657600080fd5b8035906020019184600183028401116401000000008311171561077857600080fd5b91908080601f016020809104026020016040519081016040528093929190818152602001838380828437600081840152601f19601f82011690508083019250505050505050919291929080359060200190929190505050611a10565b005b3480156107e257600080fd5b506108a6600480360360408110156107f957600080fd5b81019080803590602001909291908035906020019064010000000081111561082057600080fd5b82018360208201111561083257600080fd5b8035906020019184600183028401116401000000008311171561085457600080fd5b91908080601f016020809104026020016040519081016040528093929190818152602001838380828437600081840152601f19601f820116905080830192505050505050509192919290505050611ee3565b005b3480156108b457600080fd5b506108e1600480360360208110156108cb57600080fd5b8101908080359060200190929190505050612195565b005b3480156108ef57600080fd5b5061093c6004803603604081101561090657600080fd5b8101908080359060200190929190803573ffffffffffffffffffffffffffffffffffffffff169060200190929190505050612376565b005b34801561094a57600080fd5b506109976004803603604081101561096157600080fd5b8101908080359060200190929190803573ffffffffffffffffffffffffffffffffffffffff169060200190929190505050612636565b005b6002600083815260200190815260200160002060090160009054906101000a900473ffffffffffffffffffffffffffffffffffffffff168073ffffffffffffffffffffffffffffffffffffffff163373ffffffffffffffffffffffffffffffffffffffff1614610a71576040517f08c379a00000000000000000000000000000000000000000000000000000000081526004018080602001828103825260198152602001807f796f7520646f6e27742068617665207065726d697373696f6e0000000000000081525060200191505060405180910390fd5b826002806009811115610a8057fe5b6002600084815260200190815260200160002060080160009054906101000a900460ff166009811115610aaf57fe5b14610b05576040517f08c379a0000000000000000000000000000000000000000000000000000000008152600401808060200182810382526022815260200180612a516022913960400191505060405180910390fd5b60026000868152602001908152602001600020600b0160009054906101000a900473ffffffffffffffffffffffffffffffffffffffff166002600087815260200190815260200160002060080160016101000a81548173ffffffffffffffffffffffffffffffffffffffff021916908373ffffffffffffffffffffffffffffffffffffffff16021790555083600260008781526020019081526020016000206005019080519060200190610bba92919061292b565b5060036002600087815260200190815260200160002060080160006101000a81548160ff02191690836009811115610bee57fe5b02179055507fbba19da8d116838213738bba933a0b950d375f39821adab661418376b93ac149856040518082815260200191505060405180910390a15050505050565b60026000828152602001908152602001600020600a0160009054906101000a900473ffffffffffffffffffffffffffffffffffffffff168073ffffffffffffffffffffffffffffffffffffffff163373ffffffffffffffffffffffffffffffffffffffff1614610d09576040517f08c379a00000000000000000000000000000000000000000000000000000000081526004018080602001828103825260198152602001807f796f7520646f6e27742068617665207065726d697373696f6e0000000000000081525060200191505060405180910390fd5b816007806009811115610d1857fe5b6002600084815260200190815260200160002060080160009054906101000a900460ff166009811115610d4757fe5b14610d9d576040517f08c379a0000000000000000000000000000000000000000000000000000000008152600401808060200182810382526022815260200180612a516022913960400191505060405180910390fd5b60086002600086815260200190815260200160002060080160006101000a81548160ff02191690836009811115610dd057fe5b021790555060026000858152602001908152602001600020600c0160009054906101000a900473ffffffffffffffffffffffffffffffffffffffff166002600086815260200190815260200160002060080160016101000a81548173ffffffffffffffffffffffffffffffffffffffff021916908373ffffffffffffffffffffffffffffffffffffffff1602179055507ff00b9a5725b80c54016f42114f6ed7792d22eecb116011c4afac29c57bef6c95846040518082815260200191505060405180910390a150505050565b60026000828152602001908152602001600020600a0160009054906101000a900473ffffffffffffffffffffffffffffffffffffffff168073ffffffffffffffffffffffffffffffffffffffff163373ffffffffffffffffffffffffffffffffffffffff1614610f75576040517f08c379a00000000000000000000000000000000000000000000000000000000081526004018080602001828103825260198152602001807f796f7520646f6e27742068617665207065726d697373696f6e0000000000000081525060200191505060405180910390fd5b816006806009811115610f8457fe5b6002600084815260200190815260200160002060080160009054906101000a900460ff166009811115610fb357fe5b14611009576040517f08c379a0000000000000000000000000000000000000000000000000000000008152600401808060200182810382526022815260200180612a516022913960400191505060405180910390fd5b60076002600086815260200190815260200160002060080160006101000a81548160ff0219169083600981111561103c57fe5b02179055507f9d1715437821cd9a90cba5d1a68995c308d9ad9afc754ed9a1cff429760796e6846040518082815260200191505060405180910390a150505050565b6000809054906101000a900473ffffffffffffffffffffffffffffffffffffffff1673ffffffffffffffffffffffffffffffffffffffff163373ffffffffffffffffffffffffffffffffffffffff16141561110d576000809054906101000a900473ffffffffffffffffffffffffffffffffffffffff1673ffffffffffffffffffffffffffffffffffffffff16ff5b565b600080606080606080600080600260008a815260200190815260200160002090508060000154975080600101549650806002018054600181600116156101000203166002900480601f0160208091040260200160405190810160405280929190818152602001828054600181600116156101000203166002900480156111d65780601f106111ab576101008083540402835291602001916111d6565b820191906000526020600020905b8154815290600101906020018083116111b957829003601f168201915b50505050509550806003018054600181600116156101000203166002900480601f0160208091040260200160405190810160405280929190818152602001828054600181600116156101000203166002900480156112755780601f1061124a57610100808354040283529160200191611275565b820191906000526020600020905b81548152906001019060200180831161125857829003601f168201915b50505050509450806004018054600181600116156101000203166002900480601f0160208091040260200160405190810160405280929190818152602001828054600181600116156101000203166002900480156113145780601f106112e957610100808354040283529160200191611314565b820191906000526020600020905b8154815290600101906020018083116112f757829003601f168201915b50505050509350806005018054600181600116156101000203166002900480601f0160208091040260200160405190810160405280929190818152602001828054600181600116156101000203166002900480156113b35780601f10611388576101008083540402835291602001916113b3565b820191906000526020600020905b81548152906001019060200180831161139657829003601f168201915b505050505092508060070154915050919395979092949650565b80600060026000838152602001908152602001600020600701541161145a576040517f08c379a00000000000000000000000000000000000000000000000000000000081526004018080602001828103825260128152602001807f696e76616c696420626f6f6b207072696365000000000000000000000000000081525060200191505060405180910390fd5b60026000828152602001908152602001600020600701543410156114e6576040517f08c379a000000000000000000000000000000000000000000000000000000000815260040180806020018281038252601f8152602001807f6e656564206d6f7265206d6f6e657920746f206275792074686520626f6f6b0081525060200191505060405180910390fd5b818260058060098111156114f657fe5b6002600084815260200190815260200160002060080160009054906101000a900460ff16600981111561152557fe5b1461157b576040517f08c379a0000000000000000000000000000000000000000000000000000000008152600401808060200182810382526022815260200180612a516022913960400191505060405180910390fd5b3360026000878152602001908152602001600020600c0160006101000a81548173ffffffffffffffffffffffffffffffffffffffff021916908373ffffffffffffffffffffffffffffffffffffffff16021790555060066002600087815260200190815260200160002060080160006101000a81548160ff0219169083600981111561160357fe5b02179055506002600086815260200190815260200160002060090160009054906101000a900473ffffffffffffffffffffffffffffffffffffffff1673ffffffffffffffffffffffffffffffffffffffff166108fc60026000888152602001908152602001600020600701549081150290604051600060405180830381858888f1935050505015801561169a573d6000803e3d6000fd5b507f1edc491415bb8b2a6bd5517bda12c1c0863c42784b2c87c08ad5b33d5c9a68a08533604051808381526020018273ffffffffffffffffffffffffffffffffffffffff1673ffffffffffffffffffffffffffffffffffffffff1681526020019250505060405180910390a15050600060026000838152602001908152602001600020600701549050600081340390503373ffffffffffffffffffffffffffffffffffffffff166108fc829081150290604051600060405180830381858888f19350505050158015611770573d6000803e3d6000fd5b505050505050565b60026000838152602001908152602001600020600b0160009054906101000a900473ffffffffffffffffffffffffffffffffffffffff168073ffffffffffffffffffffffffffffffffffffffff163373ffffffffffffffffffffffffffffffffffffffff1614611850576040517f08c379a00000000000000000000000000000000000000000000000000000000081526004018080602001828103825260198152602001807f796f7520646f6e27742068617665207065726d697373696f6e0000000000000081525060200191505060405180910390fd5b82600380600981111561185f57fe5b6002600084815260200190815260200160002060080160009054906101000a900460ff16600981111561188e57fe5b146118e4576040517f08c379a0000000000000000000000000000000000000000000000000000000008152600401808060200182810382526022815260200180612a516022913960400191505060405180910390fd5b60026000868152602001908152602001600020600a0160009054906101000a900473ffffffffffffffffffffffffffffffffffffffff166002600087815260200190815260200160002060080160016101000a81548173ffffffffffffffffffffffffffffffffffffffff021916908373ffffffffffffffffffffffffffffffffffffffff1602179055508360026000878152602001908152602001600020600501908051906020019061199992919061292b565b5060046002600087815260200190815260200160002060080160006101000a81548160ff021916908360098111156119cd57fe5b02179055507f969160ae384f3a18ae5b2b990d953d5cdefa2a16a5ac574612cfc9f4dfe61427856040518082815260200191505060405180910390a15050505050565b85600060026000838152602001908152602001600020600101541480611adc57503373ffffffffffffffffffffffffffffffffffffffff166002600083815260200190815260200160002060090160009054906101000a900473ffffffffffffffffffffffffffffffffffffffff1673ffffffffffffffffffffffffffffffffffffffff16148015611adb575060006009811115611aaa57fe5b6002600083815260200190815260200160002060080160009054906101000a900460ff166009811115611ad957fe5b145b5b611b4e576040517f08c379a00000000000000000000000000000000000000000000000000000000081526004018080602001828103825260128152602001807f55504320616c726561647920696e20757365000000000000000000000000000081525060200191505060405180910390fd5b604051806101c00160405280600154815260200188815260200187815260200186815260200185815260200184815260200160405180602001604052806000815250815260200183815260200160006009811115611ba857fe5b81526020013373ffffffffffffffffffffffffffffffffffffffff1681526020013373ffffffffffffffffffffffffffffffffffffffff168152602001600073ffffffffffffffffffffffffffffffffffffffff168152602001600073ffffffffffffffffffffffffffffffffffffffff168152602001600073ffffffffffffffffffffffffffffffffffffffff168152506002600089815260200190815260200160002060008201518160000155602082015181600101556040820151816002019080519060200190611c7d9291906129ab565b506060820151816003019080519060200190611c9a9291906129ab565b506080820151816004019080519060200190611cb79291906129ab565b5060a0820151816005019080519060200190611cd49291906129ab565b5060c0820151816006019080519060200190611cf19291906129ab565b5060e082015181600701556101008201518160080160006101000a81548160ff02191690836009811115611d2157fe5b02179055506101208201518160080160016101000a81548173ffffffffffffffffffffffffffffffffffffffff021916908373ffffffffffffffffffffffffffffffffffffffff1602179055506101408201518160090160006101000a81548173ffffffffffffffffffffffffffffffffffffffff021916908373ffffffffffffffffffffffffffffffffffffffff16021790555061016082015181600a0160006101000a81548173ffffffffffffffffffffffffffffffffffffffff021916908373ffffffffffffffffffffffffffffffffffffffff16021790555061018082015181600b0160006101000a81548173ffffffffffffffffffffffffffffffffffffffff021916908373ffffffffffffffffffffffffffffffffffffffff1602179055506101a082015181600c0160006101000a81548173ffffffffffffffffffffffffffffffffffffffff021916908373ffffffffffffffffffffffffffffffffffffffff1602179055509050506001600081548092919060010191905055507f51be7b3427b12674aea14d3d0ec2afa93c8508ae3da8cbfa0407ada0025f357c876040518082815260200191505060405180910390a150505050505050565b60026000838152602001908152602001600020600a0160009054906101000a900473ffffffffffffffffffffffffffffffffffffffff168073ffffffffffffffffffffffffffffffffffffffff163373ffffffffffffffffffffffffffffffffffffffff1614611fbb576040517f08c379a00000000000000000000000000000000000000000000000000000000081526004018080602001828103825260198152602001807f796f7520646f6e27742068617665207065726d697373696f6e0000000000000081525060200191505060405180910390fd5b826004806009811115611fca57fe5b6002600084815260200190815260200160002060080160009054906101000a900460ff166009811115611ff957fe5b1461204f576040517f08c379a0000000000000000000000000000000000000000000000000000000008152600401808060200182810382526022815260200180612a516022913960400191505060405180910390fd5b60056002600087815260200190815260200160002060080160006101000a81548160ff0219169083600981111561208257fe5b0217905550836002600087815260200190815260200160002060060190805190602001906120b192919061292b565b5060056002600087815260200190815260200160002060080160006101000a81548160ff021916908360098111156120e557fe5b02179055507fdf745ce9e4e0c18059192813007cf33101a77bed4c4adb861cf65bf2edff01c785856040518083815260200180602001828103825283818151815260200191508051906020019080838360005b83811015612153578082015181840152602081019050612138565b50505050905090810190601f1680156121805780820380516001836020036101000a031916815260200191505b50935050505060405180910390a15050505050565b60026000828152602001908152602001600020600c0160009054906101000a900473ffffffffffffffffffffffffffffffffffffffff168073ffffffffffffffffffffffffffffffffffffffff163373ffffffffffffffffffffffffffffffffffffffff161461226d576040517f08c379a00000000000000000000000000000000000000000000000000000000081526004018080602001828103825260198152602001807f796f7520646f6e27742068617665207065726d697373696f6e0000000000000081525060200191505060405180910390fd5b81600880600981111561227c57fe5b6002600084815260200190815260200160002060080160009054906101000a900460ff1660098111156122ab57fe5b14612301576040517f08c379a0000000000000000000000000000000000000000000000000000000008152600401808060200182810382526022815260200180612a516022913960400191505060405180910390fd5b60096002600086815260200190815260200160002060080160006101000a81548160ff0219169083600981111561233457fe5b02179055507fa8142743f8f70a4c26f3691cf4ed59718381fb2f18070ec52be1f1022d855557846040518082815260200191505060405180910390a150505050565b6002600083815260200190815260200160002060090160009054906101000a900473ffffffffffffffffffffffffffffffffffffffff168073ffffffffffffffffffffffffffffffffffffffff163373ffffffffffffffffffffffffffffffffffffffff161461244e576040517f08c379a00000000000000000000000000000000000000000000000000000000081526004018080602001828103825260198152602001807f796f7520646f6e27742068617665207065726d697373696f6e0000000000000081525060200191505060405180910390fd5b82600080600981111561245d57fe5b6002600084815260200190815260200160002060080160009054906101000a900460ff16600981111561248c57fe5b146124e2576040517f08c379a0000000000000000000000000000000000000000000000000000000008152600401808060200182810382526022815260200180612a516022913960400191505060405180910390fd5b836002600087815260200190815260200160002060080160016101000a81548173ffffffffffffffffffffffffffffffffffffffff021916908373ffffffffffffffffffffffffffffffffffffffff1602179055508360026000878152602001908152602001600020600a0160006101000a81548173ffffffffffffffffffffffffffffffffffffffff021916908373ffffffffffffffffffffffffffffffffffffffff16021790555060016002600087815260200190815260200160002060080160006101000a81548160ff021916908360098111156125bf57fe5b02179055507fa1a7fb1df88af97284790f533c84a4284660c23f7631de9a03a258de840e4c158585604051808381526020018273ffffffffffffffffffffffffffffffffffffffff1673ffffffffffffffffffffffffffffffffffffffff1681526020019250505060405180910390a15050505050565b60026000838152602001908152602001600020600a0160009054906101000a900473ffffffffffffffffffffffffffffffffffffffff168073ffffffffffffffffffffffffffffffffffffffff163373ffffffffffffffffffffffffffffffffffffffff161461270e576040517f08c379a00000000000000000000000000000000000000000000000000000000081526004018080602001828103825260198152602001807f796f7520646f6e27742068617665207065726d697373696f6e0000000000000081525060200191505060405180910390fd5b82600180600981111561271d57fe5b6002600084815260200190815260200160002060080160009054906101000a900460ff16600981111561274c57fe5b146127a2576040517f08c379a0000000000000000000000000000000000000000000000000000000008152600401808060200182810382526022815260200180612a516022913960400191505060405180910390fd5b6002600086815260200190815260200160002060090160009054906101000a900473ffffffffffffffffffffffffffffffffffffffff166002600087815260200190815260200160002060080160016101000a81548173ffffffffffffffffffffffffffffffffffffffff021916908373ffffffffffffffffffffffffffffffffffffffff1602179055508360026000878152602001908152602001600020600b0160006101000a81548173ffffffffffffffffffffffffffffffffffffffff021916908373ffffffffffffffffffffffffffffffffffffffff160217905550600280600087815260200190815260200160002060080160006101000a81548160ff021916908360098111156128b457fe5b02179055507f7b39c92a7e1a86e846edaeff6eba715a046352c596794c2a374269c126a997688585604051808381526020018273ffffffffffffffffffffffffffffffffffffffff1673ffffffffffffffffffffffffffffffffffffffff1681526020019250505060405180910390a15050505050565b828054600181600116156101000203166002900490600052602060002090601f016020900481019282601f1061296c57805160ff191683800117855561299a565b8280016001018555821561299a579182015b8281111561299957825182559160200191906001019061297e565b5b5090506129a79190612a2b565b5090565b828054600181600116156101000203166002900490600052602060002090601f016020900481019282601f106129ec57805160ff1916838001178555612a1a565b82800160010185558215612a1a579182015b82811115612a195782518255916020019190600101906129fe565b5b509050612a279190612a2b565b5090565b612a4d91905b80821115612a49576000816000905550600101612a31565b5090565b9056fe496e76616c696420426f6f6b20737461746520666f72207468697320616374696f6ea165627a7a72305820f26f83935a0d1e6568f2cc3d1a794b43ee678492c03d0532c012e22c61a031c40029",
  "source": "pragma solidity ^0.5.2;\n\nimport {Ownable} from \"../core/Ownable.sol\";\n\nimport {PublisherRole} from \"../accesscontrol/PublisherRole.sol\";\nimport {LibraryRole} from \"../accesscontrol/LibraryRole.sol\";\nimport {ReviewerRole} from \"../accesscontrol/ReviewerRole.sol\";\nimport {WriterRole} from \"../accesscontrol/WriterRole.sol\";\n\n// Define a contract 'Supplychain'\ncontract Book {\n    address payable owner;\n    uint  currentSku;\n\n    constructor() public payable {\n        owner = msg.sender;\n        currentSku = 1;\n    }\n\n    enum State {\n        Abstract, // 0\n        Submitted, // 1\n        Approved, // 2\n        Written, // 3\n        Reviewed, // 4\n        Art, // 5\n        Ordered, // 6\n        Produced, // 7\n        Shipped, // 8\n        Received  // 9\n    }\n\n    // Define a struct 'Book' with the following fields:\n    struct Book {\n        uint sku;\n        uint upc;\n        string writerName;\n        string title;\n        string bAbstract;\n        string text;\n        string assetsUrl;\n        uint price;\n        State state;\n        address owner;\n        address payable writer;\n        address publisher;\n        address reviewer;\n        address payable buyer;\n    }\n\n    mapping(uint => Book) Books;\n\n    event Abstract(uint upc);\n    event Submitted(uint upc, address publisher);\n    event Approved(uint upc, address reviewer);\n    event Written(uint upc);\n    event Reviewed(uint upc);\n    event Art(uint upc, string assetsUrl);\n    event Ordered(uint upc, address buyer);\n    event Produced(uint upc);\n    event Shipped(uint upc);\n    event Received(uint upc);\n\n    function stateLabel(State state) internal pure returns (string memory) {\n        if (state == State.Abstract) return \"Abstract\";\n        if (state == State.Submitted) return \"Submitted\";\n        if (state == State.Approved) return \"Approved\";\n        if (state == State.Written) return \"Written\";\n        if (state == State.Reviewed) return \"Reviewed\";\n        if (state == State.Art) return \"Art\";\n        if (state == State.Ordered) return \"Ordered\";\n        if (state == State.Produced) return \"Produced\";\n        if (state == State.Shipped) return \"Shipped\";\n        if (state == State.Received) return \"Received\";\n        return \"\";\n    }\n\n    modifier availableUpc(uint _upc) {\n        require(Books[_upc].upc == 0 ||\n        (Books[_upc].writer == msg.sender && Books[_upc].state == State.Abstract),\n            \"UPC already in use\");\n        _;\n    }\n\n    modifier onlyOwner() {\n        require(msg.sender == owner);\n        _;\n    }\n\n    modifier callerIs (address _address) {\n        require(msg.sender == _address, \"you don't have permission\");\n        _;\n    }\n\n    modifier paidEnough(uint _upc) {\n        require(Books[_upc].price > 0, \"invalid book price\");\n        require(msg.value >= Books[_upc].price, \"need more money to buy the book\");\n        _;\n    }\n\n    modifier checkValue(uint _upc) {\n        _;\n        uint _price = Books[_upc].price;\n        uint amountToReturn = msg.value - _price;\n        msg.sender.transfer(amountToReturn);\n    }\n\n    modifier currentOwner(uint _upc) {\n        require(Books[_upc].owner == msg.sender, \"You don't have permission to modify this book\");\n        _;\n    }\n\n    modifier bookStateIs(uint _upc, State state) {\n        require(Books[_upc].state == state, \"Invalid Book state for this action\");\n        _;\n    }\n\n    // DONE\n    // Define a function 'kill' if required\n    function kill() public {\n        if (msg.sender == owner) {\n            selfdestruct(owner);\n        }\n    }\n\n    // Write(or update) the abstract\n    function registerBook(uint _upc, string memory _writerName, string memory _draftTitle,\n        string memory _bAbstract, string memory _draft, uint _price)\n    public availableUpc(_upc) {\n        // Initialize only the essential\n        Books[_upc] = Book({\n            sku : currentSku,\n            upc : _upc,\n            writerName : _writerName,\n            title : _draftTitle,\n            bAbstract : _bAbstract,\n            text : _draft,\n            assetsUrl : \"\",\n            price : _price,\n            state : State.Abstract,\n            owner : msg.sender,\n            writer : msg.sender,\n            publisher : address(0),\n            reviewer : address(0),\n            buyer : address(0)\n            });\n\n        currentSku++;\n\n        // Emit the appropriate event\n        emit Abstract(_upc);\n    }\n\n    // After finish the abstract submit to some Publisher\n    function submit(uint _upc, address publisher) public\n    callerIs(Books[_upc].writer)\n    bookStateIs(_upc, State.Abstract) {\n        Books[_upc].owner = publisher;\n        Books[_upc].publisher = publisher;\n        Books[_upc].state = State.Submitted;\n\n        // Emit the appropriate event\n        emit Submitted(_upc, publisher);\n    }\n\n    // in the approval, the publisher set the reviewer\n    function approve(uint _upc, address reviewer) public\n    callerIs(Books[_upc].publisher)\n    bookStateIs(_upc, State.Submitted) {\n        // Update the appropriate fields\n        Books[_upc].owner = Books[_upc].writer;\n        Books[_upc].reviewer = reviewer;\n        Books[_upc].state = State.Approved;\n\n        // Emit the appropriate event\n        emit Approved(_upc, reviewer);\n    }\n\n    function write(uint _upc, string memory text) public\n    callerIs(Books[_upc].writer)\n    bookStateIs(_upc, State.Approved) {\n\n        Books[_upc].owner = Books[_upc].reviewer;\n        Books[_upc].text = text;\n        Books[_upc].state = State.Written;\n\n        emit Written(_upc);\n    }\n\n    // in the review, the reviewer set the final text\n    function review(uint _upc, string memory finalText) public\n    callerIs(Books[_upc].reviewer)\n    bookStateIs(_upc, State.Written) {\n        Books[_upc].owner = Books[_upc].publisher;\n        Books[_upc].text = finalText;\n        Books[_upc].state = State.Reviewed;\n\n        emit Reviewed(_upc);\n    }\n\n    function artBook(uint _upc, string memory _assetsUrl) public\n    callerIs(Books[_upc].publisher)\n    bookStateIs(_upc, State.Reviewed) {\n        Books[_upc].state = State.Art;\n        Books[_upc].assetsUrl = _assetsUrl;\n        Books[_upc].state = State.Art;\n\n        // emit the event showing the book art URL\n        emit Art(_upc, _assetsUrl);\n    }\n\n    function orderBook(uint _upc) public payable\n    paidEnough(_upc)\n    checkValue(_upc)\n    bookStateIs(_upc, State.Art)\n    {\n        Books[_upc].buyer = msg.sender;\n        Books[_upc].state = State.Ordered;\n        Books[_upc].writer.transfer(Books[_upc].price);\n\n        emit Ordered(_upc, msg.sender);\n    }\n\n\n    function produceBook(uint _upc) public\n    callerIs(Books[_upc].publisher)\n    bookStateIs(_upc, State.Ordered) {\n        Books[_upc].state = State.Produced;\n\n        emit Produced(_upc);\n    }\n\n    function ship(uint _upc) public\n    callerIs(Books[_upc].publisher)\n    bookStateIs(_upc, State.Produced) {\n        Books[_upc].state = State.Shipped;\n        Books[_upc].owner = Books[_upc].buyer;\n\n        emit Shipped(_upc);\n    }\n\n    function receive(uint _upc) public\n    callerIs(Books[_upc].buyer)\n    bookStateIs(_upc, State.Shipped) {\n        Books[_upc].state = State.Received;\n\n        // Boom! Book delivered\n        emit Received(_upc);\n    }\n\n    function fetchBook(uint _upc) public view returns\n    (\n        uint sku,\n        uint upc,\n        string memory writerName,\n        string memory title,\n        string memory bAbstract,\n        string memory text,\n        uint price\n        \n    )\n    {\n        // Assign values to the 8 parameters\n        Book storage book = Books[_upc];\n\n        sku = book.sku;\n        upc = book.upc;\n        writerName = book.writerName;\n        title = book.title;\n        bAbstract = book.bAbstract;\n        text = book.text;\n        price = book.price;\n        \n    }\n}\n",
  "sourcePath": "C:/Projetos/BlockchainND/blockchainnd-supplychain-part-b/contracts/base/Book.sol",
  "compiler": {
    "name": "solc",
    "version": "0.5.7+commit.6da8b019.Emscripten.clang"
  },
  "schemaVersion": "3.0.6",
  "updatedAt": "2019-04-04T15:21:48.573Z",
  "devdoc": {
    "methods": {}
  },
  "userdoc": {
    "methods": {}
  }
}