{
  "contractName": "LibraryRole",
  "abi": [
    {
      "inputs": [],
      "payable": false,
      "stateMutability": "nonpayable",
      "type": "constructor"
    },
    {
      "anonymous": false,
      "inputs": [
        {
          "indexed": true,
          "name": "account",
          "type": "address"
        }
      ],
      "name": "LibraryAdded",
      "type": "event"
    },
    {
      "anonymous": false,
      "inputs": [
        {
          "indexed": true,
          "name": "account",
          "type": "address"
        }
      ],
      "name": "LibraryRemoved",
      "type": "event"
    },
    {
      "constant": true,
      "inputs": [
        {
          "name": "account",
          "type": "address"
        }
      ],
      "name": "isLibrary",
      "outputs": [
        {
          "name": "",
          "type": "bool"
        }
      ],
      "payable": false,
      "stateMutability": "view",
      "type": "function"
    },
    {
      "constant": false,
      "inputs": [
        {
          "name": "account",
          "type": "address"
        }
      ],
      "name": "addLibrary",
      "outputs": [],
      "payable": false,
      "stateMutability": "nonpayable",
      "type": "function"
    },
    {
      "constant": false,
      "inputs": [],
      "name": "renounceLibrary",
      "outputs": [],
      "payable": false,
      "stateMutability": "nonpayable",
      "type": "function"
    }
  ],
  "bytecode": "0x608060405234801561001057600080fd5b506100293361002e640100000000026401000000009004565b6101e2565b61004f81600061009564010000000002610344179091906401000000009004565b8073ffffffffffffffffffffffffffffffffffffffff167f2a6869cd9cbe00cc8218e41a39f0860576b3964458f90758c988efa067d16bc260405160405180910390a250565b600073ffffffffffffffffffffffffffffffffffffffff168173ffffffffffffffffffffffffffffffffffffffff1614156100cf57600080fd5b6100e88282610150640100000000026401000000009004565b156100f257600080fd5b60018260000160008373ffffffffffffffffffffffffffffffffffffffff1673ffffffffffffffffffffffffffffffffffffffff16815260200190815260200160002060006101000a81548160ff0219169083151502179055505050565b60008073ffffffffffffffffffffffffffffffffffffffff168273ffffffffffffffffffffffffffffffffffffffff16141561018b57600080fd5b8260000160008373ffffffffffffffffffffffffffffffffffffffff1673ffffffffffffffffffffffffffffffffffffffff16815260200190815260200160002060009054906101000a900460ff16905092915050565b61041c806101f16000396000f3fe608060405234801561001057600080fd5b506004361061005e576000357c01000000000000000000000000000000000000000000000000000000009004806333c099cc1461006357806392c77ea11461006d578063d8890861146100c9575b600080fd5b61006b61010d565b005b6100af6004803603602081101561008357600080fd5b81019080803573ffffffffffffffffffffffffffffffffffffffff169060200190929190505050610118565b604051808215151515815260200191505060405180910390f35b61010b600480360360208110156100df57600080fd5b81019080803573ffffffffffffffffffffffffffffffffffffffff169060200190929190505050610135565b005b61011633610153565b565b600061012e8260006101ad90919063ffffffff16565b9050919050565b61013e33610118565b61014757600080fd5b6101508161023f565b50565b61016781600061029990919063ffffffff16565b8073ffffffffffffffffffffffffffffffffffffffff167f4c6c3c4c8568e507a40a8bd53645566aa74e705cc2e96e6768e9097c9b2a895d60405160405180910390a250565b60008073ffffffffffffffffffffffffffffffffffffffff168273ffffffffffffffffffffffffffffffffffffffff1614156101e857600080fd5b8260000160008373ffffffffffffffffffffffffffffffffffffffff1673ffffffffffffffffffffffffffffffffffffffff16815260200190815260200160002060009054906101000a900460ff16905092915050565b61025381600061034490919063ffffffff16565b8073ffffffffffffffffffffffffffffffffffffffff167f2a6869cd9cbe00cc8218e41a39f0860576b3964458f90758c988efa067d16bc260405160405180910390a250565b600073ffffffffffffffffffffffffffffffffffffffff168173ffffffffffffffffffffffffffffffffffffffff1614156102d357600080fd5b6102dd82826101ad565b6102e657600080fd5b60008260000160008373ffffffffffffffffffffffffffffffffffffffff1673ffffffffffffffffffffffffffffffffffffffff16815260200190815260200160002060006101000a81548160ff0219169083151502179055505050565b600073ffffffffffffffffffffffffffffffffffffffff168173ffffffffffffffffffffffffffffffffffffffff16141561037e57600080fd5b61038882826101ad565b1561039257600080fd5b60018260000160008373ffffffffffffffffffffffffffffffffffffffff1673ffffffffffffffffffffffffffffffffffffffff16815260200190815260200160002060006101000a81548160ff021916908315150217905550505056fea165627a7a723058206006026399d85739d394114d6f40734d4b5a7a390e1c4e13883753fce68107710029",
  "source": "pragma solidity ^0.5.2;\r\n\r\n// Import the library 'Roles'\r\nimport \"./Roles.sol\";\r\n\r\n// Define a contract 'LibraryRole' to manage this role - add, remove, check\r\ncontract LibraryRole {\r\n  using Roles for Roles.Role;\r\n\r\n  // Define 2 events, one for Adding, and other for Removing\r\n  event LibraryAdded(address indexed account);\r\n  event LibraryRemoved(address indexed account);\r\n  \r\n  // Define a struct 'Librarys' by inheriting from 'Roles' library, struct Role\r\n  Roles.Role private Libraries;\r\n\r\n  constructor() public {\r\n    _addLibrary(msg.sender);\r\n  }\r\n\r\n  // Define a modifier that checks to see if msg.sender has the appropriate role\r\n  modifier onlyLibrary() {\r\n    require(isLibrary(msg.sender));\r\n    _;\r\n  }\r\n\r\n  // Define a modifier that checks to see if msg.sender has the appropriate role\r\n  modifier libraryOwner(address account) {\r\n    require(isLibrary(account), \"Not a Library Account\");\r\n    _;\r\n  }\r\n\r\n  // Define a function 'isLibrary' to check this role\r\n  function isLibrary(address account) public view returns (bool) {\r\n    return Libraries.has(account);\r\n  }\r\n\r\n  // Define a function 'addLibrary' that adds this role\r\n  function addLibrary(address account) public onlyLibrary {\r\n    _addLibrary(account);\r\n  }\r\n\r\n  // Define a function 'renounceLibrary' to renounce this role\r\n  function renounceLibrary() public {\r\n    _removeLibrary(msg.sender);\r\n  }\r\n\r\n  // Define an internal function '_addLibrary' to add this role, called by 'addLibrary'\r\n  function _addLibrary(address account) internal {\r\n    Libraries.add(account);\r\n    emit LibraryAdded(account);\r\n  }\r\n\r\n  // Define an internal function '_removeLibrary' to remove this role, called by 'removeLibrary'\r\n  function _removeLibrary(address account) internal {\r\n    Libraries.remove(account);\r\n    emit LibraryRemoved(account);\r\n  }\r\n}",
  "sourcePath": "C:\\Projects\\blockchainnd-supplychain-part-b\\contracts\\accesscontrol\\LibraryRole.sol",
  "compiler": {
    "name": "solc",
    "version": "0.5.7+commit.6da8b019.Emscripten.clang"
  },
  "schemaVersion": "3.0.6",
  "updatedAt": "2019-04-07T03:25:39.260Z",
  "devdoc": {
    "methods": {}
  },
  "userdoc": {
    "methods": {}
  }
}