{
  "contractName": "PublisherRole",
  "abi": [
    {
      "inputs": [],
      "payable": false,
      "stateMutability": "nonpayable",
      "type": "constructor"
    },
    {
      "anonymous": false,
      "inputs": [
        {
          "indexed": true,
          "name": "account",
          "type": "address"
        }
      ],
      "name": "PublisherAdded",
      "type": "event"
    },
    {
      "anonymous": false,
      "inputs": [
        {
          "indexed": true,
          "name": "account",
          "type": "address"
        }
      ],
      "name": "PublisherRemoved",
      "type": "event"
    },
    {
      "constant": true,
      "inputs": [
        {
          "name": "account",
          "type": "address"
        }
      ],
      "name": "isPublisher",
      "outputs": [
        {
          "name": "",
          "type": "bool"
        }
      ],
      "payable": false,
      "stateMutability": "view",
      "type": "function"
    },
    {
      "constant": false,
      "inputs": [
        {
          "name": "account",
          "type": "address"
        }
      ],
      "name": "addPublisher",
      "outputs": [],
      "payable": false,
      "stateMutability": "nonpayable",
      "type": "function"
    },
    {
      "constant": false,
      "inputs": [],
      "name": "renouncePublisher",
      "outputs": [],
      "payable": false,
      "stateMutability": "nonpayable",
      "type": "function"
    }
  ],
  "bytecode": "0x608060405234801561001057600080fd5b506100293361002e640100000000026401000000009004565b6101e2565b61004f81600061009564010000000002610344179091906401000000009004565b8073ffffffffffffffffffffffffffffffffffffffff167f466d40d3c5afb07f32aa87fa68d587f144c6fee2dfb883b3363937d5427e044260405160405180910390a250565b600073ffffffffffffffffffffffffffffffffffffffff168173ffffffffffffffffffffffffffffffffffffffff1614156100cf57600080fd5b6100e88282610150640100000000026401000000009004565b156100f257600080fd5b60018260000160008373ffffffffffffffffffffffffffffffffffffffff1673ffffffffffffffffffffffffffffffffffffffff16815260200190815260200160002060006101000a81548160ff0219169083151502179055505050565b60008073ffffffffffffffffffffffffffffffffffffffff168273ffffffffffffffffffffffffffffffffffffffff16141561018b57600080fd5b8260000160008373ffffffffffffffffffffffffffffffffffffffff1673ffffffffffffffffffffffffffffffffffffffff16815260200190815260200160002060009054906101000a900460ff16905092915050565b61041c806101f16000396000f3fe608060405234801561001057600080fd5b506004361061005e576000357c01000000000000000000000000000000000000000000000000000000009004806315851e581461006357806341859ac81461006d578063763f323d146100c9575b600080fd5b61006b61010d565b005b6100af6004803603602081101561008357600080fd5b81019080803573ffffffffffffffffffffffffffffffffffffffff169060200190929190505050610118565b604051808215151515815260200191505060405180910390f35b61010b600480360360208110156100df57600080fd5b81019080803573ffffffffffffffffffffffffffffffffffffffff169060200190929190505050610135565b005b61011633610153565b565b600061012e8260006101ad90919063ffffffff16565b9050919050565b61013e33610118565b61014757600080fd5b6101508161023f565b50565b61016781600061029990919063ffffffff16565b8073ffffffffffffffffffffffffffffffffffffffff167f215ef528757ca84646fb5c401012a31bcbf1f99487a51e57a57a0c0afa0d3dd260405160405180910390a250565b60008073ffffffffffffffffffffffffffffffffffffffff168273ffffffffffffffffffffffffffffffffffffffff1614156101e857600080fd5b8260000160008373ffffffffffffffffffffffffffffffffffffffff1673ffffffffffffffffffffffffffffffffffffffff16815260200190815260200160002060009054906101000a900460ff16905092915050565b61025381600061034490919063ffffffff16565b8073ffffffffffffffffffffffffffffffffffffffff167f466d40d3c5afb07f32aa87fa68d587f144c6fee2dfb883b3363937d5427e044260405160405180910390a250565b600073ffffffffffffffffffffffffffffffffffffffff168173ffffffffffffffffffffffffffffffffffffffff1614156102d357600080fd5b6102dd82826101ad565b6102e657600080fd5b60008260000160008373ffffffffffffffffffffffffffffffffffffffff1673ffffffffffffffffffffffffffffffffffffffff16815260200190815260200160002060006101000a81548160ff0219169083151502179055505050565b600073ffffffffffffffffffffffffffffffffffffffff168173ffffffffffffffffffffffffffffffffffffffff16141561037e57600080fd5b61038882826101ad565b1561039257600080fd5b60018260000160008373ffffffffffffffffffffffffffffffffffffffff1673ffffffffffffffffffffffffffffffffffffffff16815260200190815260200160002060006101000a81548160ff021916908315150217905550505056fea165627a7a723058204ea7298e96a3bded01c65d5315e3926415385192f2f8b8a3c6298e76ce9b1d090029",
  "source": "pragma solidity ^0.5.2;\r\n\r\n// Import the library 'Roles'\r\nimport \"./Roles.sol\";\r\n\r\n// Define a contract 'PublisherRole' to manage this role - add, remove, check\r\ncontract PublisherRole {\r\n  using Roles for Roles.Role;\r\n\r\n  // Define 2 events, one for Adding, and other for Removing\r\n  event PublisherAdded(address indexed account);\r\n  event PublisherRemoved(address indexed account);\r\n\r\n  // Define a struct 'Publishers' by inheriting from 'Roles' library, struct Role\r\n  Roles.Role private Publishers;\r\n\r\n  // In the constructor make the address that deploys this contract the 1st Publisher\r\n  constructor() public {\r\n    _addPublisher(msg.sender);\r\n  }\r\n\r\n  // Define a modifier that checks to see if msg.sender has the appropriate role\r\n  modifier onlyPublisher() {\r\n    require(isPublisher(msg.sender));\r\n    _;\r\n  }\r\n\r\n  modifier checkPublisher(address account) {\r\n    require(isPublisher(account));\r\n    _;\r\n  }\r\n\r\n  // Define a function 'isPublisher' to check this role\r\n  function isPublisher(address account) public view returns (bool) {\r\n    return Publishers.has(account);\r\n  }\r\n\r\n  // Define a function 'addPublisher' that adds this role\r\n  function addPublisher(address account) public onlyPublisher {\r\n    _addPublisher(account);\r\n  }\r\n\r\n  // Define a function 'renouncePublisher' to renounce this role\r\n  function renouncePublisher() public {\r\n    _removePublisher(msg.sender);\r\n  }\r\n\r\n  // Define an internal function '_addPublisher' to add this role, called by 'addPublisher'\r\n  function _addPublisher(address account) internal {\r\n    Publishers.add(account);\r\n    emit PublisherAdded(account);\r\n  }\r\n\r\n  // Define an internal function '_removePublisher' to remove this role, called by 'removePublisher'\r\n  function _removePublisher(address account) internal {\r\n    Publishers.remove(account);\r\n    emit PublisherRemoved(account);\r\n  }\r\n}",
  "sourcePath": "C:\\Projetos\\BlockchainND\\blockchainnd-supplychain-part-b\\contracts\\accesscontrol\\PublisherRole.sol",
  "compiler": {
    "name": "solc",
    "version": "0.5.7+commit.6da8b019.Emscripten.clang"
  },
  "schemaVersion": "3.0.6",
  "updatedAt": "2019-04-04T15:26:56.113Z",
  "devdoc": {
    "methods": {}
  },
  "userdoc": {
    "methods": {}
  }
}