{
  "contractName": "ReviewerRole",
  "abi": [
    {
      "inputs": [],
      "payable": false,
      "stateMutability": "nonpayable",
      "type": "constructor"
    },
    {
      "anonymous": false,
      "inputs": [
        {
          "indexed": true,
          "name": "account",
          "type": "address"
        }
      ],
      "name": "ReviewerAdded",
      "type": "event"
    },
    {
      "anonymous": false,
      "inputs": [
        {
          "indexed": true,
          "name": "account",
          "type": "address"
        }
      ],
      "name": "ReviewerRemoved",
      "type": "event"
    },
    {
      "constant": true,
      "inputs": [
        {
          "name": "account",
          "type": "address"
        }
      ],
      "name": "isReviewer",
      "outputs": [
        {
          "name": "",
          "type": "bool"
        }
      ],
      "payable": false,
      "stateMutability": "view",
      "type": "function"
    },
    {
      "constant": false,
      "inputs": [
        {
          "name": "account",
          "type": "address"
        }
      ],
      "name": "addReviewer",
      "outputs": [],
      "payable": false,
      "stateMutability": "nonpayable",
      "type": "function"
    },
    {
      "constant": false,
      "inputs": [],
      "name": "renounceReviewer",
      "outputs": [],
      "payable": false,
      "stateMutability": "nonpayable",
      "type": "function"
    }
  ],
  "bytecode": "0x608060405234801561001057600080fd5b506100293361002e640100000000026401000000009004565b6101e2565b61004f81600061009564010000000002610299179091906401000000009004565b8073ffffffffffffffffffffffffffffffffffffffff167fa78fc22d4599bb0c6086d2af06bc1158a45e81f81994d0734c428ab181c1463f60405160405180910390a250565b600073ffffffffffffffffffffffffffffffffffffffff168173ffffffffffffffffffffffffffffffffffffffff1614156100cf57600080fd5b6100e88282610150640100000000026401000000009004565b156100f257600080fd5b60018260000160008373ffffffffffffffffffffffffffffffffffffffff1673ffffffffffffffffffffffffffffffffffffffff16815260200190815260200160002060006101000a81548160ff0219169083151502179055505050565b60008073ffffffffffffffffffffffffffffffffffffffff168273ffffffffffffffffffffffffffffffffffffffff16141561018b57600080fd5b8260000160008373ffffffffffffffffffffffffffffffffffffffff1673ffffffffffffffffffffffffffffffffffffffff16815260200190815260200160002060009054906101000a900460ff16905092915050565b61041c806101f16000396000f3fe608060405234801561001057600080fd5b506004361061005e576000357c01000000000000000000000000000000000000000000000000000000009004806373a82b5f14610063578063e20914f1146100a7578063fdc6258a146100b1575b600080fd5b6100a56004803603602081101561007957600080fd5b81019080803573ffffffffffffffffffffffffffffffffffffffff16906020019092919050505061010d565b005b6100af61012b565b005b6100f3600480360360208110156100c757600080fd5b81019080803573ffffffffffffffffffffffffffffffffffffffff169060200190929190505050610136565b604051808215151515815260200191505060405180910390f35b61011633610136565b61011f57600080fd5b61012881610153565b50565b610134336101ad565b565b600061014c82600061020790919063ffffffff16565b9050919050565b61016781600061029990919063ffffffff16565b8073ffffffffffffffffffffffffffffffffffffffff167fa78fc22d4599bb0c6086d2af06bc1158a45e81f81994d0734c428ab181c1463f60405160405180910390a250565b6101c181600061034590919063ffffffff16565b8073ffffffffffffffffffffffffffffffffffffffff167f49145f5509d304a1345a43a563c576514a1b93d345ffca3905a2bed1d867442c60405160405180910390a250565b60008073ffffffffffffffffffffffffffffffffffffffff168273ffffffffffffffffffffffffffffffffffffffff16141561024257600080fd5b8260000160008373ffffffffffffffffffffffffffffffffffffffff1673ffffffffffffffffffffffffffffffffffffffff16815260200190815260200160002060009054906101000a900460ff16905092915050565b600073ffffffffffffffffffffffffffffffffffffffff168173ffffffffffffffffffffffffffffffffffffffff1614156102d357600080fd5b6102dd8282610207565b156102e757600080fd5b60018260000160008373ffffffffffffffffffffffffffffffffffffffff1673ffffffffffffffffffffffffffffffffffffffff16815260200190815260200160002060006101000a81548160ff0219169083151502179055505050565b600073ffffffffffffffffffffffffffffffffffffffff168173ffffffffffffffffffffffffffffffffffffffff16141561037f57600080fd5b6103898282610207565b61039257600080fd5b60008260000160008373ffffffffffffffffffffffffffffffffffffffff1673ffffffffffffffffffffffffffffffffffffffff16815260200190815260200160002060006101000a81548160ff021916908315150217905550505056fea165627a7a7230582054ff95ff227ac8641186a93278437bbda16eae00a0b56ca34772a3183c5be1eb0029",
  "source": "pragma solidity ^0.5.2;\r\n\r\n// Import the library 'Roles'\r\nimport \"./Roles.sol\";\r\n\r\n// Define a contract 'ReviewerRole' to manage this role - add, remove, check\r\ncontract ReviewerRole {\r\n  using Roles for Roles.Role;\r\n\r\n  // Define 2 events, one for Adding, and other for Removing\r\n  event ReviewerAdded(address indexed account);\r\n  event ReviewerRemoved(address indexed account);\r\n\r\n  // Define a struct 'Reviewers' by inheriting from 'Roles' library, struct Role\r\n  Roles.Role private Reviewers;\r\n\r\n  // In the constructor make the address that deploys this contract the 1st Reviewer\r\n  constructor() public {\r\n    _addReviewer(msg.sender);\r\n  }\r\n\r\n  // Define a modifier that checks to see if msg.sender has the appropriate role\r\n  modifier onlyReviewer() {\r\n    require(isReviewer(msg.sender));\r\n    _;\r\n  }\r\n\r\n  // Define a function 'isReviewer' to check this role\r\n  function isReviewer(address account) public view returns (bool) {\r\n    return Reviewers.has(account);\r\n  }\r\n\r\n  // Define a function 'addReviewer' that adds this role\r\n  function addReviewer(address account) public onlyReviewer {\r\n    _addReviewer(account);\r\n  }\r\n\r\n  // Define a function 'renounceReviewer' to renounce this role\r\n  function renounceReviewer() public {\r\n    _removeReviewer(msg.sender);\r\n  }\r\n\r\n  // Define an internal function '_addReviewer' to add this role, called by 'addReviewer'\r\n  function _addReviewer(address account) internal {\r\n    Reviewers.add(account);\r\n    emit ReviewerAdded(account);\r\n  }\r\n\r\n  // Define an internal function '_removeReviewer' to remove this role, called by 'removeReviewer'\r\n  function _removeReviewer(address account) internal {\r\n    Reviewers.remove(account);\r\n    emit ReviewerRemoved(account);\r\n  }\r\n}",
  "sourcePath": "C:\\Projects\\blockchainnd-supplychain-part-b\\contracts\\accesscontrol\\ReviewerRole.sol",
  "compiler": {
    "name": "solc",
    "version": "0.5.7+commit.6da8b019.Emscripten.clang"
  },
  "schemaVersion": "3.0.6",
  "updatedAt": "2019-04-07T03:25:39.250Z",
  "devdoc": {
    "methods": {}
  },
  "userdoc": {
    "methods": {}
  }
}