{
  "contractName": "WriterRole",
  "abi": [
    {
      "inputs": [],
      "payable": false,
      "stateMutability": "nonpayable",
      "type": "constructor"
    },
    {
      "anonymous": false,
      "inputs": [
        {
          "indexed": true,
          "name": "account",
          "type": "address"
        }
      ],
      "name": "WriterAdded",
      "type": "event"
    },
    {
      "anonymous": false,
      "inputs": [
        {
          "indexed": true,
          "name": "account",
          "type": "address"
        }
      ],
      "name": "WriterRemoved",
      "type": "event"
    },
    {
      "constant": true,
      "inputs": [
        {
          "name": "account",
          "type": "address"
        }
      ],
      "name": "isWriter",
      "outputs": [
        {
          "name": "",
          "type": "bool"
        }
      ],
      "payable": false,
      "stateMutability": "view",
      "type": "function"
    },
    {
      "constant": false,
      "inputs": [
        {
          "name": "account",
          "type": "address"
        }
      ],
      "name": "addWriter",
      "outputs": [],
      "payable": false,
      "stateMutability": "nonpayable",
      "type": "function"
    },
    {
      "constant": false,
      "inputs": [],
      "name": "renounceWriter",
      "outputs": [],
      "payable": false,
      "stateMutability": "nonpayable",
      "type": "function"
    }
  ],
  "bytecode": "0x608060405234801561001057600080fd5b506100293361002e640100000000026401000000009004565b6101e2565b61004f81600061009564010000000002610302179091906401000000009004565b8073ffffffffffffffffffffffffffffffffffffffff167f6ff3aa2ea7b53070f6d9d07a445d338d89e8edef44250ffa8be19f53910d4a2e60405160405180910390a250565b600073ffffffffffffffffffffffffffffffffffffffff168173ffffffffffffffffffffffffffffffffffffffff1614156100cf57600080fd5b6100e88282610150640100000000026401000000009004565b156100f257600080fd5b60018260000160008373ffffffffffffffffffffffffffffffffffffffff1673ffffffffffffffffffffffffffffffffffffffff16815260200190815260200160002060006101000a81548160ff0219169083151502179055505050565b60008073ffffffffffffffffffffffffffffffffffffffff168273ffffffffffffffffffffffffffffffffffffffff16141561018b57600080fd5b8260000160008373ffffffffffffffffffffffffffffffffffffffff1673ffffffffffffffffffffffffffffffffffffffff16815260200190815260200160002060009054906101000a900460ff16905092915050565b610485806101f16000396000f3fe608060405234801561001057600080fd5b506004361061005e576000357c0100000000000000000000000000000000000000000000000000000000900480632b29ba2314610063578063da2824a8146100bf578063df4eb59c14610103575b600080fd5b6100a56004803603602081101561007957600080fd5b81019080803573ffffffffffffffffffffffffffffffffffffffff16906020019092919050505061010d565b604051808215151515815260200191505060405180910390f35b610101600480360360208110156100d557600080fd5b81019080803573ffffffffffffffffffffffffffffffffffffffff16906020019092919050505061012a565b005b61010b6101b1565b005b60006101238260006101bc90919063ffffffff16565b9050919050565b6101333361010d565b6101a5576040517f08c379a00000000000000000000000000000000000000000000000000000000081526004018080602001828103825260138152602001807f4e65656420746f2062652061205772697465720000000000000000000000000081525060200191505060405180910390fd5b6101ae8161024e565b50565b6101ba336102a8565b565b60008073ffffffffffffffffffffffffffffffffffffffff168273ffffffffffffffffffffffffffffffffffffffff1614156101f757600080fd5b8260000160008373ffffffffffffffffffffffffffffffffffffffff1673ffffffffffffffffffffffffffffffffffffffff16815260200190815260200160002060009054906101000a900460ff16905092915050565b61026281600061030290919063ffffffff16565b8073ffffffffffffffffffffffffffffffffffffffff167f6ff3aa2ea7b53070f6d9d07a445d338d89e8edef44250ffa8be19f53910d4a2e60405160405180910390a250565b6102bc8160006103ae90919063ffffffff16565b8073ffffffffffffffffffffffffffffffffffffffff167f86e5bbceda94081c32220d685f37cc4e3ea7bb0be2dfbf0cb703579505a5390e60405160405180910390a250565b600073ffffffffffffffffffffffffffffffffffffffff168173ffffffffffffffffffffffffffffffffffffffff16141561033c57600080fd5b61034682826101bc565b1561035057600080fd5b60018260000160008373ffffffffffffffffffffffffffffffffffffffff1673ffffffffffffffffffffffffffffffffffffffff16815260200190815260200160002060006101000a81548160ff0219169083151502179055505050565b600073ffffffffffffffffffffffffffffffffffffffff168173ffffffffffffffffffffffffffffffffffffffff1614156103e857600080fd5b6103f282826101bc565b6103fb57600080fd5b60008260000160008373ffffffffffffffffffffffffffffffffffffffff1673ffffffffffffffffffffffffffffffffffffffff16815260200190815260200160002060006101000a81548160ff021916908315150217905550505056fea165627a7a723058205c5f3f5cd961b050302e63a23836a49eb275265f77ffdff78c194925231b382d0029",
  "source": "pragma solidity ^0.5.2;\r\n\r\n// Import the library 'Roles'\r\nimport \"./Roles.sol\";\r\n\r\n// Define a contract 'WriterRole' to manage this role - add, remove, check\r\ncontract WriterRole {\r\n  using Roles for Roles.Role;\r\n\r\n  // Define 2 events, one for Adding, and other for Removing\r\n  event WriterAdded(address indexed account);\r\n  event WriterRemoved(address indexed account);\r\n\r\n  // Define a struct 'Writers' by inheriting from 'Roles' library, struct Role\r\n  Roles.Role private Writers;\r\n\r\n  // In the constructor make the address that deploys this contract the 1st Writer\r\n  constructor() public {\r\n    _addWriter(msg.sender);\r\n  }\r\n\r\n  // Define a modifier that checks to see if msg.sender has the appropriate role\r\n  modifier onlyWriter() {\r\n    require(isWriter(msg.sender), \"Need to be a Writer\");\r\n    _;\r\n  }\r\n\r\n  // Define a function 'isWriter' to check this role\r\n  function isWriter(address account) public view returns (bool) {\r\n    return Writers.has(account);\r\n  }\r\n\r\n  // Define a function 'addWriter' that adds this role\r\n  function addWriter(address account) public onlyWriter {\r\n    _addWriter(account);\r\n  }\r\n\r\n  // Define a function 'renounceWriter' to renounce this role\r\n  function renounceWriter() public {\r\n    _removeWriter(msg.sender);\r\n  }\r\n\r\n  // Define an internal function '_addWriter' to add this role, called by 'addWriter'\r\n  function _addWriter(address account) internal {\r\n    Writers.add(account);\r\n    emit WriterAdded(account);\r\n  }\r\n\r\n  // Define an internal function '_removeWriter' to remove this role, called by 'removeWriter'\r\n  function _removeWriter(address account) internal {\r\n    Writers.remove(account);\r\n    emit WriterRemoved(account);\r\n  }\r\n}",
  "sourcePath": "C:\\Projects\\blockchainnd-supplychain-part-b\\contracts\\accesscontrol\\WriterRole.sol",
  "compiler": {
    "name": "solc",
    "version": "0.5.7+commit.6da8b019.Emscripten.clang"
  },
  "schemaVersion": "3.0.6",
  "updatedAt": "2019-04-07T03:25:39.254Z",
  "devdoc": {
    "methods": {}
  },
  "userdoc": {
    "methods": {}
  }
}